{
  "contractName": "DAO",
  "abi": [
    {
      "constant": true,
      "inputs": [
        {
          "name": "interfaceId",
          "type": "bytes4"
        }
      ],
      "name": "supportsInterface",
      "outputs": [
        {
          "name": "",
          "type": "bool"
        }
      ],
      "payable": false,
      "stateMutability": "view",
      "type": "function"
    },
    {
      "constant": false,
      "inputs": [
        {
          "name": "account",
          "type": "address"
        }
      ],
      "name": "addDapp",
      "outputs": [],
      "payable": false,
      "stateMutability": "nonpayable",
      "type": "function"
    },
    {
      "constant": true,
      "inputs": [],
      "name": "acceptedToken",
      "outputs": [
        {
          "name": "",
          "type": "address"
        }
      ],
      "payable": false,
      "stateMutability": "view",
      "type": "function"
    },
    {
      "constant": false,
      "inputs": [
        {
          "name": "account",
          "type": "address"
        }
      ],
      "name": "removeDapp",
      "outputs": [],
      "payable": false,
      "stateMutability": "nonpayable",
      "type": "function"
    },
    {
      "constant": true,
      "inputs": [
        {
          "name": "account",
          "type": "address"
        }
      ],
      "name": "isOperator",
      "outputs": [
        {
          "name": "",
          "type": "bool"
        }
      ],
      "payable": false,
      "stateMutability": "view",
      "type": "function"
    },
    {
      "constant": false,
      "inputs": [],
      "name": "renounceOwnership",
      "outputs": [],
      "payable": false,
      "stateMutability": "nonpayable",
      "type": "function"
    },
    {
      "constant": false,
      "inputs": [
        {
          "name": "owner",
          "type": "address"
        },
        {
          "name": "value",
          "type": "uint256"
        },
        {
          "name": "data",
          "type": "bytes"
        }
      ],
      "name": "onApprovalReceived",
      "outputs": [
        {
          "name": "",
          "type": "bytes4"
        }
      ],
      "payable": false,
      "stateMutability": "nonpayable",
      "type": "function"
    },
    {
      "constant": false,
      "inputs": [
        {
          "name": "operator",
          "type": "address"
        },
        {
          "name": "from",
          "type": "address"
        },
        {
          "name": "value",
          "type": "uint256"
        },
        {
          "name": "data",
          "type": "bytes"
        }
      ],
      "name": "onTransferReceived",
      "outputs": [
        {
          "name": "",
          "type": "bytes4"
        }
      ],
      "payable": false,
      "stateMutability": "nonpayable",
      "type": "function"
    },
    {
      "constant": true,
      "inputs": [],
      "name": "owner",
      "outputs": [
        {
          "name": "",
          "type": "address"
        }
      ],
      "payable": false,
      "stateMutability": "view",
      "type": "function"
    },
    {
      "constant": true,
      "inputs": [],
      "name": "isOwner",
      "outputs": [
        {
          "name": "",
          "type": "bool"
        }
      ],
      "payable": false,
      "stateMutability": "view",
      "type": "function"
    },
    {
      "constant": false,
      "inputs": [
        {
          "name": "account",
          "type": "address"
        }
      ],
      "name": "addOperator",
      "outputs": [],
      "payable": false,
      "stateMutability": "nonpayable",
      "type": "function"
    },
    {
      "constant": false,
      "inputs": [
        {
          "name": "account",
          "type": "address"
        }
      ],
      "name": "removeOperator",
      "outputs": [],
      "payable": false,
      "stateMutability": "nonpayable",
      "type": "function"
    },
    {
      "constant": true,
      "inputs": [
        {
          "name": "account",
          "type": "address"
        }
      ],
      "name": "isDapp",
      "outputs": [
        {
          "name": "",
          "type": "bool"
        }
      ],
      "payable": false,
      "stateMutability": "view",
      "type": "function"
    },
    {
      "constant": false,
      "inputs": [
        {
          "name": "newOwner",
          "type": "address"
        }
      ],
      "name": "transferOwnership",
      "outputs": [],
      "payable": false,
      "stateMutability": "nonpayable",
      "type": "function"
    },
    {
      "inputs": [
        {
          "name": "acceptedToken",
          "type": "address"
        }
      ],
      "payable": false,
      "stateMutability": "nonpayable",
      "type": "constructor"
    },
    {
      "payable": true,
      "stateMutability": "payable",
      "type": "fallback"
    },
    {
      "anonymous": false,
      "inputs": [
        {
          "indexed": true,
          "name": "account",
          "type": "address"
        },
        {
          "indexed": false,
          "name": "id",
          "type": "uint256"
        }
      ],
      "name": "MemberAdded",
      "type": "event"
    },
    {
      "anonymous": false,
      "inputs": [
        {
          "indexed": true,
          "name": "account",
          "type": "address"
        },
        {
          "indexed": false,
          "name": "value",
          "type": "uint256"
        }
      ],
      "name": "TokensStaked",
      "type": "event"
    },
    {
      "anonymous": false,
      "inputs": [
        {
          "indexed": true,
          "name": "account",
          "type": "address"
        },
        {
          "indexed": false,
          "name": "value",
          "type": "uint256"
        }
      ],
      "name": "TokensUnstaked",
      "type": "event"
    },
    {
      "anonymous": false,
      "inputs": [
        {
          "indexed": true,
          "name": "account",
          "type": "address"
        },
        {
          "indexed": true,
          "name": "dapp",
          "type": "address"
        },
        {
          "indexed": false,
          "name": "value",
          "type": "uint256"
        }
      ],
      "name": "TokensUsed",
      "type": "event"
    },
    {
      "anonymous": false,
      "inputs": [
        {
          "indexed": true,
          "name": "account",
          "type": "address"
        }
      ],
      "name": "OperatorAdded",
      "type": "event"
    },
    {
      "anonymous": false,
      "inputs": [
        {
          "indexed": true,
          "name": "account",
          "type": "address"
        }
      ],
      "name": "OperatorRemoved",
      "type": "event"
    },
    {
      "anonymous": false,
      "inputs": [
        {
          "indexed": true,
          "name": "account",
          "type": "address"
        }
      ],
      "name": "DappAdded",
      "type": "event"
    },
    {
      "anonymous": false,
      "inputs": [
        {
          "indexed": true,
          "name": "account",
          "type": "address"
        }
      ],
      "name": "DappRemoved",
      "type": "event"
    },
    {
      "anonymous": false,
      "inputs": [
        {
          "indexed": true,
          "name": "previousOwner",
          "type": "address"
        },
        {
          "indexed": true,
          "name": "newOwner",
          "type": "address"
        }
      ],
      "name": "OwnershipTransferred",
      "type": "event"
    },
    {
      "anonymous": false,
      "inputs": [
        {
          "indexed": true,
          "name": "operator",
          "type": "address"
        },
        {
          "indexed": true,
          "name": "from",
          "type": "address"
        },
        {
          "indexed": false,
          "name": "value",
          "type": "uint256"
        },
        {
          "indexed": false,
          "name": "data",
          "type": "bytes"
        }
      ],
      "name": "TokensReceived",
      "type": "event"
    },
    {
      "anonymous": false,
      "inputs": [
        {
          "indexed": true,
          "name": "owner",
          "type": "address"
        },
        {
          "indexed": false,
          "name": "value",
          "type": "uint256"
        },
        {
          "indexed": false,
          "name": "data",
          "type": "bytes"
        }
      ],
      "name": "TokensApproved",
      "type": "event"
    },
    {
      "constant": false,
      "inputs": [
        {
          "name": "account",
          "type": "address"
        }
      ],
      "name": "newMember",
      "outputs": [],
      "payable": false,
      "stateMutability": "nonpayable",
      "type": "function"
    },
    {
      "constant": false,
      "inputs": [
        {
          "name": "amount",
          "type": "uint256"
        }
      ],
      "name": "unstake",
      "outputs": [],
      "payable": false,
      "stateMutability": "nonpayable",
      "type": "function"
    },
    {
      "constant": false,
      "inputs": [
        {
          "name": "account",
          "type": "address"
        },
        {
          "name": "amount",
          "type": "uint256"
        }
      ],
      "name": "use",
      "outputs": [],
      "payable": false,
      "stateMutability": "nonpayable",
      "type": "function"
    },
    {
      "constant": true,
      "inputs": [],
      "name": "membersNumber",
      "outputs": [
        {
          "name": "",
          "type": "uint256"
        }
      ],
      "payable": false,
      "stateMutability": "view",
      "type": "function"
    },
    {
      "constant": true,
      "inputs": [],
      "name": "totalStakedTokens",
      "outputs": [
        {
          "name": "",
          "type": "uint256"
        }
      ],
      "payable": false,
      "stateMutability": "view",
      "type": "function"
    },
    {
      "constant": true,
      "inputs": [
        {
          "name": "account",
          "type": "address"
        }
      ],
      "name": "isMember",
      "outputs": [
        {
          "name": "",
          "type": "bool"
        }
      ],
      "payable": false,
      "stateMutability": "view",
      "type": "function"
    },
    {
      "constant": true,
      "inputs": [
        {
          "name": "memberAddress",
          "type": "address"
        }
      ],
      "name": "getMemberByAddress",
      "outputs": [
        {
          "name": "id",
          "type": "uint256"
        },
        {
          "name": "account",
          "type": "address"
        },
        {
          "name": "fingerprint",
          "type": "bytes9"
        },
        {
          "name": "creationDate",
          "type": "uint256"
        },
        {
          "name": "stakedTokens",
          "type": "uint256"
        },
        {
          "name": "data",
          "type": "bytes32"
        },
        {
          "name": "kyc",
          "type": "bool"
        }
      ],
      "payable": false,
      "stateMutability": "view",
      "type": "function"
    },
    {
      "constant": true,
      "inputs": [
        {
          "name": "memberId",
          "type": "uint256"
        }
      ],
      "name": "getMemberById",
      "outputs": [
        {
          "name": "id",
          "type": "uint256"
        },
        {
          "name": "account",
          "type": "address"
        },
        {
          "name": "fingerprint",
          "type": "bytes9"
        },
        {
          "name": "creationDate",
          "type": "uint256"
        },
        {
          "name": "stakedTokens",
          "type": "uint256"
        },
        {
          "name": "data",
          "type": "bytes32"
        },
        {
          "name": "kyc",
          "type": "bool"
        }
      ],
      "payable": false,
      "stateMutability": "view",
      "type": "function"
    }
  ],
  "bytecode": "0x60806040523480156200001157600080fd5b506040516020806200171f833981018060405260208110156200003357600080fd5b505180620000687f01ffc9a700000000000000000000000000000000000000000000000000000000620002a4602090811b901c565b6001600160a01b0381166200007c57600080fd5b604080517f01ffc9a70000000000000000000000000000000000000000000000000000000081527f4bbee2df00000000000000000000000000000000000000000000000000000000600482015290516001600160a01b038316916301ffc9a7916024808301926020929190829003018186803b158015620000fc57600080fd5b505afa15801562000111573d6000803e3d6000fd5b505050506040513d60208110156200012857600080fd5b50518015620001e15750604080517f01ffc9a70000000000000000000000000000000000000000000000000000000081527ffb9ec8ce00000000000000000000000000000000000000000000000000000000600482015290516001600160a01b038316916301ffc9a7916024808301926020929190829003018186803b158015620001b257600080fd5b505afa158015620001c7573d6000803e3d6000fd5b505050506040513d6020811015620001de57600080fd5b50515b620001eb57600080fd5b600180546001600160a01b0319166001600160a01b038316179055620002387f88a7ca5c00000000000000000000000000000000000000000000000000000000620002a4602090811b901c565b62000250637b04a2d060e01b620002a460201b60201c565b50600280546001600160a01b0319163317908190556040516001600160a01b0391909116906000907f8be0079c531659141344cd1fd0a4f28419497f9722a3daafe3b4186f6b6457e0908290a35062000311565b7fffffffff000000000000000000000000000000000000000000000000000000008082161415620002d457600080fd5b7fffffffff00000000000000000000000000000000000000000000000000000000166000908152602081905260409020805460ff19166001179055565b6113fe80620003216000396000f3fe6080604052600436106101355760003560e01c8063715018a6116100ab5780638f32d59b1161006f5780638f32d59b146105b95780639870d7fe146105ce578063a230c52414610601578063ac8a584a14610634578063e52c355814610667578063f2fde38b1461069a57610135565b8063715018a6146103c25780637b04a2d0146103d757806388a7ca5c146104bc5780638a4fe8ac1461058f5780638da5cb5b146105a457610135565b8063451c3d80116100fd578063451c3d80146102955780635cafbafb146102c6578063627c55f6146102f957806369fb2a201461032c5780636d70f7ae146103655780636f80886c1461039857610135565b806301ffc9a71461014b57806327b7ca5f146101935780632e17de78146101c65780633ae73259146101f05780633dd9899f14610217575b341561014057600080fd5b610149336106cd565b005b34801561015757600080fd5b5061017f6004803603602081101561016e57600080fd5b50356001600160e01b031916610725565b604080519115158252519081900360200190f35b34801561019f57600080fd5b50610149600480360360208110156101b657600080fd5b50356001600160a01b0316610744565b3480156101d257600080fd5b50610149600480360360208110156101e957600080fd5b5035610762565b3480156101fc57600080fd5b50610205610840565b60408051918252519081900360200190f35b34801561022357600080fd5b5061024a6004803603602081101561023a57600080fd5b50356001600160a01b0316610846565b604080519788526001600160a01b0390961660208801526001600160b81b0319909416868601526060860192909252608085015260a0840152151560c0830152519081900360e00190f35b3480156102a157600080fd5b506102aa61089c565b604080516001600160a01b039092168252519081900360200190f35b3480156102d257600080fd5b50610149600480360360208110156102e957600080fd5b50356001600160a01b03166108ab565b34801561030557600080fd5b506101496004803603602081101561031c57600080fd5b50356001600160a01b03166108c6565b34801561033857600080fd5b506101496004803603604081101561034f57600080fd5b506001600160a01b0381351690602001356108e1565b34801561037157600080fd5b5061017f6004803603602081101561038857600080fd5b50356001600160a01b03166109dc565b3480156103a457600080fd5b5061024a600480360360208110156103bb57600080fd5b50356109f5565b3480156103ce57600080fd5b50610149610a59565b3480156103e357600080fd5b5061049f600480360360608110156103fa57600080fd5b6001600160a01b038235169160208101359181019060608101604082013564010000000081111561042a57600080fd5b82018360208201111561043c57600080fd5b8035906020019184600183028401116401000000008311171561045e57600080fd5b91908080601f016020809104026020016040519081016040528093929190818152602001838380828437600092019190915250929550610ab4945050505050565b604080516001600160e01b03199092168252519081900360200190f35b3480156104c857600080fd5b5061049f600480360360808110156104df57600080fd5b6001600160a01b0382358116926020810135909116916040820135919081019060808101606082013564010000000081111561051a57600080fd5b82018360208201111561052c57600080fd5b8035906020019184600183028401116401000000008311171561054e57600080fd5b91908080601f016020809104026020016040519081016040528093929190818152602001838380828437600092019190915250929550610b97945050505050565b34801561059b57600080fd5b50610205610c86565b3480156105b057600080fd5b506102aa610c8c565b3480156105c557600080fd5b5061017f610c9b565b3480156105da57600080fd5b50610149600480360360208110156105f157600080fd5b50356001600160a01b0316610cac565b34801561060d57600080fd5b5061017f6004803603602081101561062457600080fd5b50356001600160a01b0316610cc6565b34801561064057600080fd5b506101496004803603602081101561065757600080fd5b50356001600160a01b0316610cd9565b34801561067357600080fd5b5061017f6004803603602081101561068a57600080fd5b50356001600160a01b0316610cf3565b3480156106a657600080fd5b50610149600480360360208110156106bd57600080fd5b50356001600160a01b0316610d06565b60006106e060058363ffffffff610d2016565b6040805182815290519192506001600160a01b038416917fede8eed4383e9241982619b94dd83e488b274cced0fd07b8c0092a393defd52f9181900360200190a25050565b6001600160e01b03191660009081526020819052604090205460ff1690565b61074d336109dc565b61075657600080fd5b61075f81610eb3565b50565b6107746005338363ffffffff610efb16565b61077c61089c565b6001600160a01b031663a9059cbb33836040518363ffffffff1660e01b815260040180836001600160a01b03166001600160a01b0316815260200182815260200192505050602060405180830381600087803b1580156107db57600080fd5b505af11580156107ef573d6000803e3d6000fd5b505050506040513d602081101561080557600080fd5b505060408051828152905133917f9845e367b683334e5c0b12d7b81721ac518e649376fa65e3d68324e8f34f2679919081900360200190a250565b60065490565b600080600080600080600061085a88610cc6565b61086357600080fd5b6001600160a01b038816600090815260076020526040902054610885906109f5565b959e949d50929b5090995097509550909350915050565b6001546001600160a01b031690565b6108b4336109dc565b6108bd57600080fd5b61075f816106cd565b6108cf336109dc565b6108d857600080fd5b61075f81610f86565b6108ea33610cf3565b6108f357600080fd5b6109056005838363ffffffff610efb16565b61090d61089c565b6001600160a01b031663a9059cbb33836040518363ffffffff1660e01b815260040180836001600160a01b03166001600160a01b0316815260200182815260200192505050602060405180830381600087803b15801561096c57600080fd5b505af1158015610980573d6000803e3d6000fd5b505050506040513d602081101561099657600080fd5b505060408051828152905133916001600160a01b038516917f87becb63265cd5357feae86dabd7e41e1ee5b3a6aeb0f3773cd90163aca2903e9181900360200190a35050565b60006109ef60038363ffffffff610fce16565b92915050565b600080808080808080610a0f60058a63ffffffff61100316565b80546001820154600283015460038401546004850154600590950154939e6001600160a01b0384169e50600160a01b90930460b81b9c50909a50985091965060ff16945092505050565b610a61610c9b565b610a6a57600080fd5b6002546040516000916001600160a01b0316907f8be0079c531659141344cd1fd0a4f28419497f9722a3daafe3b4186f6b6457e0908390a3600280546001600160a01b0319169055565b6001546000906001600160a01b03163314610ace57600080fd5b836001600160a01b03167ffc47604465ac19edea172256bab2469184c3a6770701541635cf84241c2f24b484846040518083815260200180602001828103825283818151815260200191508051906020019080838360005b83811015610b3e578181015183820152602001610b26565b50505050905090810190601f168015610b6b5780820380516001836020036101000a031916815260200191505b50935050505060405180910390a2610b84848484611031565b50600160e41b6307b04a2d029392505050565b6001546000906001600160a01b03163314610bb157600080fd5b836001600160a01b0316856001600160a01b03167f01db5e58326b109682dc160b2e51aa7bf7e8d8ccf74bc242a3c502179378905585856040518083815260200180602001828103825283818151815260200191508051906020019080838360005b83811015610c2b578181015183820152602001610c13565b50505050905090810190601f168015610c585780820380516001836020036101000a031916815260200191505b50935050505060405180910390a3610c72858585856110d2565b50600160e21b632229f29702949350505050565b60055490565b6002546001600160a01b031690565b6002546001600160a01b0316331490565b610cb4610c9b565b610cbd57600080fd5b61075f816110e2565b60006109ef60058363ffffffff61112a16565b610ce1610c9b565b610cea57600080fd5b61075f8161114b565b60006109ef60048363ffffffff610fce16565b610d0e610c9b565b610d1757600080fd5b61075f81611193565b60006001600160a01b038216610d3557600080fd5b610d3f838361112a565b15610d4957600080fd5b8254600090610d5f90600163ffffffff61120216565b90506000610d6d8483611214565b905081856002016000866001600160a01b03166001600160a01b03168152602001908152602001600020819055506040518060e00160405280838152602001856001600160a01b03168152602001826001600160b81b03191681526020014281526020016000815260200160008019168152602001600015158152508560030160008481526020019081526020016000206000820151816000015560208201518160010160006101000a8154816001600160a01b0302191690836001600160a01b0316021790555060408201518160010160146101000a81548168ffffffffffffffffff021916908360b81c0217905550606082015181600201556080820151816003015560a0820151816004015560c08201518160050160006101000a81548160ff021916908315150217905550905050818560000181905550819250505092915050565b610ec460048263ffffffff61125216565b6040516001600160a01b038216907f34db09e115b593d4a96c3047ffae8bfd18efd935fd73d76338af3f4a8593295090600090a250565b610f05838361112a565b610f0e57600080fd5b6001600160a01b03821660009081526002840160209081526040808320548352600380870190925290912090810154821115610f4957600080fd5b6003810154610f5e908363ffffffff61129e16565b60038201556001840154610f78908363ffffffff61129e16565b846001018190555050505050565b610f9760048263ffffffff6112b316565b6040516001600160a01b038216907f1822aa3e32733968fade457518e58efe85994da84bac3654f2f88b957ad29c6590600090a250565b60006001600160a01b038216610fe357600080fd5b506001600160a01b03166000908152602091909152604090205460ff1690565b6000818152600383016020526040812060018101546001600160a01b031661102a57600080fd5b9392505050565b61103961089c565b60408051600160e01b6323b872dd0281526001600160a01b03868116600483015230602483015260448201869052915192909116916323b872dd916064808201926020929091908290030181600087803b15801561109657600080fd5b505af11580156110aa573d6000803e3d6000fd5b505050506040513d60208110156110c057600080fd5b506110cd905083836112fb565b505050565b6110dc83836112fb565b50505050565b6110f360038263ffffffff61125216565b6040516001600160a01b038216907fac6fa858e9350a46cec16539926e0fde25b7629f84b5a72bffaae4df888ae86d90600090a250565b6001600160a01b031660009081526002919091016020526040902054151590565b61115c60038263ffffffff6112b316565b6040516001600160a01b038216907f80c0b871b97b595b16a7741c1b06fed0c6f6f558639f18ccbce50724325dc40d90600090a250565b6001600160a01b0381166111a657600080fd5b6002546040516001600160a01b038084169216907f8be0079c531659141344cd1fd0a4f28419497f9722a3daafe3b4186f6b6457e090600090a3600280546001600160a01b0319166001600160a01b0392909216919091179055565b60008282018381101561102a57600080fd5b604080516001600160a01b039390931660601b6020808501919091526034808501939093528151808503909301835260549093019052805191012090565b6001600160a01b03811661126557600080fd5b61126f8282610fce565b1561127957600080fd5b6001600160a01b0316600090815260209190915260409020805460ff19166001179055565b6000828211156112ad57600080fd5b50900390565b6001600160a01b0381166112c657600080fd5b6112d08282610fce565b6112d957600080fd5b6001600160a01b0316600090815260209190915260409020805460ff19169055565b61130482610cc6565b61131157611311826106cd565b6113236005838363ffffffff61136616565b6040805182815290516001600160a01b038416917fb539ca1e5c8d398ddf1c41c30166f33404941683be4683319b57669a93dad4ef919081900360200190a25050565b611370838361112a565b61137957600080fd5b6001600160a01b038216600090815260028401602090815260408083205483526003808701909252909120908101546113b8908363ffffffff61120216565b60038201556001840154610f78908363ffffffff6112021656fea165627a7a72305820bf7d1d0706cf1771f32daf12147ed74dcf4484e08cb24fd81885f3f4fceb023b0029",
  "source": "pragma solidity ^0.5.7;\n\nimport \"erc-payable-token/contracts/payment/ERC1363Payable.sol\";\nimport \"../access/roles/DAORoles.sol\";\nimport \"./Organization.sol\";\n\n/**\n * @title DAO\n * @author Vittorio Minacori (https://github.com/vittominacori)\n * @dev It identifies the DAO and Organization logic\n */\ncontract DAO is ERC1363Payable, DAORoles {\n    using Organization for Organization.Members;\n    using Organization for Organization.Member;\n\n    event MemberAdded(\n        address indexed account,\n        uint256 id\n    );\n\n    event TokensStaked(\n        address indexed account,\n        uint256 value\n    );\n\n    event TokensUnstaked(\n        address indexed account,\n        uint256 value\n    );\n\n    event TokensUsed(\n        address indexed account,\n        address indexed dapp,\n        uint256 value\n    );\n\n    Organization.Members private _members;\n\n    constructor (IERC1363 acceptedToken) public ERC1363Payable(acceptedToken) {} // solhint-disable-line no-empty-blocks\n\n    /**\n     * @dev fallback. This function will create a new member\n     */\n    function () external payable { // solhint-disable-line no-complex-fallback\n        require(msg.value == 0);\n\n        _newMember(msg.sender);\n    }\n\n    /**\n     * @dev Generate a new member and the member structure\n     * @param account Address you want to make member\n     * @return uint256 The new member id\n     */\n    function newMember(address account) external onlyOperator {\n        _newMember(account);\n    }\n\n    /**\n     * @dev Remove tokens from member stack\n     * @param amount Number of tokens to unstake\n     */\n    function unstake(uint256 amount) public {\n        _members.unstake(msg.sender, amount);\n\n        IERC20(acceptedToken()).transfer(msg.sender, amount);\n\n        emit TokensUnstaked(msg.sender, amount);\n    }\n\n    /**\n     * @dev Use tokens from a specific account\n     * @param account Address to use the tokens from\n     * @param amount Number of tokens to use\n     */\n    function use(address account, uint256 amount) public onlyDapp {\n        _members.unstake(account, amount);\n\n        IERC20(acceptedToken()).transfer(msg.sender, amount);\n\n        emit TokensUsed(account, msg.sender, amount);\n    }\n\n    /**\n     * @dev Returns the members number\n     * @return uint256\n     */\n    function membersNumber() public view returns (uint256) {\n        return _members.count;\n    }\n\n    /**\n     * @dev Returns the total staked tokens number\n     * @return uint256\n     */\n    function totalStakedTokens() public view returns (uint256) {\n        return _members.totalStakedTokens;\n    }\n\n    /**\n     * @dev Returns if an address is member or not\n     * @param account Address of the member you are looking for\n     * @return bool\n     */\n    function isMember(address account) public view returns (bool) {\n        return _members.isMember(account);\n    }\n\n    /**\n     * @dev Returns the member structure\n     * @param memberAddress Address of the member you are looking for\n     * @return array\n     */\n    function getMemberByAddress(address memberAddress)\n        public\n        view\n        returns (\n            uint256 id,\n            address account,\n            bytes9 fingerprint,\n            uint256 creationDate,\n            uint256 stakedTokens,\n            bytes32 data,\n            bool kyc\n        )\n    {\n        require(isMember(memberAddress));\n\n        return getMemberById(_members.addressMap[memberAddress]);\n    }\n\n    /**\n     * @dev Returns the member structure\n     * @param memberId Id of the member you are looking for\n     * @return array\n     */\n    function getMemberById(uint256 memberId)\n        public\n        view\n        returns (\n            uint256 id,\n            address account,\n            bytes9 fingerprint,\n            uint256 creationDate,\n            uint256 stakedTokens,\n            bytes32 data,\n            bool kyc\n        )\n    {\n        Organization.Member storage structure = _members.getMember(memberId);\n\n        id = structure.id;\n        account = structure.account;\n        fingerprint = structure.fingerprint;\n        creationDate = structure.creationDate;\n        stakedTokens = structure.stakedTokens;\n        data = structure.data;\n        kyc = structure.kyc;\n    }\n\n    /**\n     * @dev Called after validating a `onTransferReceived`\n     * @param operator address The address which called `transferAndCall` or `transferFromAndCall` function\n     * @param from address The address which are token transferred from\n     * @param value uint256 The amount of tokens transferred\n     * @param data bytes Additional data with no specified format\n     */\n    function _transferReceived(\n        address operator, // solhint-disable-line no-unused-vars\n        address from,\n        uint256 value,\n        bytes memory data // solhint-disable-line no-unused-vars\n    )\n        internal\n    {\n        _stake(from, value);\n    }\n\n    /**\n     * @dev Called after validating a `onApprovalReceived`\n     * @param owner address The address which called `approveAndCall` function\n     * @param value uint256 The amount of tokens to be spent\n     * @param data bytes Additional data with no specified format\n     */\n    function _approvalReceived(\n        address owner,\n        uint256 value,\n        bytes memory data // solhint-disable-line no-unused-vars\n    )\n        internal\n    {\n        IERC20(acceptedToken()).transferFrom(owner, address(this), value);\n\n        _stake(owner, value);\n    }\n\n    /**\n     * @dev Generate a new member and the member structure\n     * @param account Address you want to make member\n     * @return uint256 The new member id\n     */\n    function _newMember(address account) internal {\n        uint256 memberId = _members.addMember(account);\n\n        emit MemberAdded(account, memberId);\n    }\n\n    /**\n     * @dev Add tokens to member stack\n     * @param account Address you want to stake tokens\n     * @param amount Number of tokens to stake\n     */\n    function _stake(address account, uint256 amount) internal {\n        if (!isMember(account)) {\n            _newMember(account);\n        }\n\n        _members.stake(account, amount);\n\n        emit TokensStaked(account, amount);\n    }\n}\n",
  "sourcePath": "/Users/vittominacori/Projects/friendsfingers/dao-smartcontracts/contracts/dao/DAO.sol",
  "compiler": {
    "name": "solc",
    "version": "0.5.7+commit.6da8b019.Emscripten.clang"
  },
  "schemaVersion": "3.0.6",
  "updatedAt": "2019-04-13T15:02:41.317Z",
  "devdoc": {
    "author": "Vittorio Minacori (https://github.com/vittominacori)",
    "details": "It identifies the DAO and Organization logic",
    "methods": {
      "acceptedToken()": {
        "details": "The ERC1363 token accepted"
      },
      "addDapp(address)": {
        "details": "Add the `dapp` role from address",
        "params": {
          "account": "Address you want to add role"
        }
      },
      "addOperator(address)": {
        "details": "Add the `operator` role from address",
        "params": {
          "account": "Address you want to add role"
        }
      },
      "getMemberByAddress(address)": {
        "details": "Returns the member structure",
        "params": {
          "memberAddress": "Address of the member you are looking for"
        },
        "return": "array"
      },
      "getMemberById(uint256)": {
        "details": "Returns the member structure",
        "params": {
          "memberId": "Id of the member you are looking for"
        },
        "return": "array"
      },
      "isDapp(address)": {
        "details": "Check if an address has the `dapp` role",
        "params": {
          "account": "Address you want to check"
        }
      },
      "isMember(address)": {
        "details": "Returns if an address is member or not",
        "params": {
          "account": "Address of the member you are looking for"
        },
        "return": "bool"
      },
      "isOperator(address)": {
        "details": "Check if an address has the `operator` role",
        "params": {
          "account": "Address you want to check"
        }
      },
      "isOwner()": {
        "return": "true if `msg.sender` is the owner of the contract."
      },
      "membersNumber()": {
        "details": "Returns the members number",
        "return": "uint256"
      },
      "newMember(address)": {
        "details": "Generate a new member and the member structure",
        "params": {
          "account": "Address you want to make member"
        },
        "return": "uint256 The new member id"
      },
      "owner()": {
        "return": "the address of the owner."
      },
      "removeDapp(address)": {
        "details": "Remove the `operator` role from address",
        "params": {
          "account": "Address you want to remove role"
        }
      },
      "removeOperator(address)": {
        "details": "Remove the `operator` role from address",
        "params": {
          "account": "Address you want to remove role"
        }
      },
      "renounceOwnership()": {
        "details": "Allows the current owner to relinquish control of the contract. It will not be possible to call the functions with the `onlyOwner` modifier anymore."
      },
      "supportsInterface(bytes4)": {
        "details": "implement supportsInterface(bytes4) using a lookup table"
      },
      "totalStakedTokens()": {
        "details": "Returns the total staked tokens number",
        "return": "uint256"
      },
      "transferOwnership(address)": {
        "details": "Allows the current owner to transfer control of the contract to a newOwner.",
        "params": {
          "newOwner": "The address to transfer ownership to."
        }
      },
      "unstake(uint256)": {
        "details": "Remove tokens from member stack",
        "params": {
          "amount": "Number of tokens to unstake"
        }
      },
      "use(address,uint256)": {
        "details": "Use tokens from a specific account",
        "params": {
          "account": "Address to use the tokens from",
          "amount": "Number of tokens to use"
        }
      }
    },
    "title": "DAO"
  },
  "userdoc": {
    "methods": {
      "renounceOwnership()": {
        "notice": "Renouncing ownership will leave the contract without an owner, thereby removing any functionality that is only available to the owner."
      }
    }
  }
}