{
  "contractName": "DAO",
  "abi": [
    {
      "constant": true,
      "inputs": [
        {
          "name": "interfaceId",
          "type": "bytes4"
        }
      ],
      "name": "supportsInterface",
      "outputs": [
        {
          "name": "",
          "type": "bool"
        }
      ],
      "payable": false,
      "stateMutability": "view",
      "type": "function"
    },
    {
      "constant": false,
      "inputs": [
        {
          "name": "account",
          "type": "address"
        }
      ],
      "name": "addDapp",
      "outputs": [],
      "payable": false,
      "stateMutability": "nonpayable",
      "type": "function"
    },
    {
      "constant": true,
      "inputs": [],
      "name": "acceptedToken",
      "outputs": [
        {
          "name": "",
          "type": "address"
        }
      ],
      "payable": false,
      "stateMutability": "view",
      "type": "function"
    },
    {
      "constant": false,
      "inputs": [
        {
          "name": "account",
          "type": "address"
        }
      ],
      "name": "removeDapp",
      "outputs": [],
      "payable": false,
      "stateMutability": "nonpayable",
      "type": "function"
    },
    {
      "constant": true,
      "inputs": [
        {
          "name": "account",
          "type": "address"
        }
      ],
      "name": "isOperator",
      "outputs": [
        {
          "name": "",
          "type": "bool"
        }
      ],
      "payable": false,
      "stateMutability": "view",
      "type": "function"
    },
    {
      "constant": false,
      "inputs": [],
      "name": "renounceOwnership",
      "outputs": [],
      "payable": false,
      "stateMutability": "nonpayable",
      "type": "function"
    },
    {
      "constant": false,
      "inputs": [
        {
          "name": "owner",
          "type": "address"
        },
        {
          "name": "value",
          "type": "uint256"
        },
        {
          "name": "data",
          "type": "bytes"
        }
      ],
      "name": "onApprovalReceived",
      "outputs": [
        {
          "name": "",
          "type": "bytes4"
        }
      ],
      "payable": false,
      "stateMutability": "nonpayable",
      "type": "function"
    },
    {
      "constant": false,
      "inputs": [
        {
          "name": "operator",
          "type": "address"
        },
        {
          "name": "from",
          "type": "address"
        },
        {
          "name": "value",
          "type": "uint256"
        },
        {
          "name": "data",
          "type": "bytes"
        }
      ],
      "name": "onTransferReceived",
      "outputs": [
        {
          "name": "",
          "type": "bytes4"
        }
      ],
      "payable": false,
      "stateMutability": "nonpayable",
      "type": "function"
    },
    {
      "constant": true,
      "inputs": [],
      "name": "owner",
      "outputs": [
        {
          "name": "",
          "type": "address"
        }
      ],
      "payable": false,
      "stateMutability": "view",
      "type": "function"
    },
    {
      "constant": true,
      "inputs": [],
      "name": "isOwner",
      "outputs": [
        {
          "name": "",
          "type": "bool"
        }
      ],
      "payable": false,
      "stateMutability": "view",
      "type": "function"
    },
    {
      "constant": false,
      "inputs": [
        {
          "name": "account",
          "type": "address"
        }
      ],
      "name": "addOperator",
      "outputs": [],
      "payable": false,
      "stateMutability": "nonpayable",
      "type": "function"
    },
    {
      "constant": false,
      "inputs": [
        {
          "name": "account",
          "type": "address"
        }
      ],
      "name": "removeOperator",
      "outputs": [],
      "payable": false,
      "stateMutability": "nonpayable",
      "type": "function"
    },
    {
      "constant": true,
      "inputs": [
        {
          "name": "account",
          "type": "address"
        }
      ],
      "name": "isDapp",
      "outputs": [
        {
          "name": "",
          "type": "bool"
        }
      ],
      "payable": false,
      "stateMutability": "view",
      "type": "function"
    },
    {
      "constant": false,
      "inputs": [
        {
          "name": "newOwner",
          "type": "address"
        }
      ],
      "name": "transferOwnership",
      "outputs": [],
      "payable": false,
      "stateMutability": "nonpayable",
      "type": "function"
    },
    {
      "inputs": [
        {
          "name": "acceptedToken",
          "type": "address"
        }
      ],
      "payable": false,
      "stateMutability": "nonpayable",
      "type": "constructor"
    },
    {
      "payable": true,
      "stateMutability": "payable",
      "type": "fallback"
    },
    {
      "anonymous": false,
      "inputs": [
        {
          "indexed": true,
          "name": "account",
          "type": "address"
        },
        {
          "indexed": false,
          "name": "id",
          "type": "uint256"
        }
      ],
      "name": "MemberAdded",
      "type": "event"
    },
    {
      "anonymous": false,
      "inputs": [
        {
          "indexed": true,
          "name": "account",
          "type": "address"
        },
        {
          "indexed": false,
          "name": "value",
          "type": "uint256"
        }
      ],
      "name": "TokensStaked",
      "type": "event"
    },
    {
      "anonymous": false,
      "inputs": [
        {
          "indexed": true,
          "name": "account",
          "type": "address"
        },
        {
          "indexed": false,
          "name": "value",
          "type": "uint256"
        }
      ],
      "name": "TokensUnstaked",
      "type": "event"
    },
    {
      "anonymous": false,
      "inputs": [
        {
          "indexed": true,
          "name": "account",
          "type": "address"
        },
        {
          "indexed": true,
          "name": "dapp",
          "type": "address"
        },
        {
          "indexed": false,
          "name": "value",
          "type": "uint256"
        }
      ],
      "name": "TokensUsed",
      "type": "event"
    },
    {
      "anonymous": false,
      "inputs": [
        {
          "indexed": true,
          "name": "account",
          "type": "address"
        }
      ],
      "name": "OperatorAdded",
      "type": "event"
    },
    {
      "anonymous": false,
      "inputs": [
        {
          "indexed": true,
          "name": "account",
          "type": "address"
        }
      ],
      "name": "OperatorRemoved",
      "type": "event"
    },
    {
      "anonymous": false,
      "inputs": [
        {
          "indexed": true,
          "name": "account",
          "type": "address"
        }
      ],
      "name": "DappAdded",
      "type": "event"
    },
    {
      "anonymous": false,
      "inputs": [
        {
          "indexed": true,
          "name": "account",
          "type": "address"
        }
      ],
      "name": "DappRemoved",
      "type": "event"
    },
    {
      "anonymous": false,
      "inputs": [
        {
          "indexed": true,
          "name": "previousOwner",
          "type": "address"
        },
        {
          "indexed": true,
          "name": "newOwner",
          "type": "address"
        }
      ],
      "name": "OwnershipTransferred",
      "type": "event"
    },
    {
      "anonymous": false,
      "inputs": [
        {
          "indexed": true,
          "name": "operator",
          "type": "address"
        },
        {
          "indexed": true,
          "name": "from",
          "type": "address"
        },
        {
          "indexed": false,
          "name": "value",
          "type": "uint256"
        },
        {
          "indexed": false,
          "name": "data",
          "type": "bytes"
        }
      ],
      "name": "TokensReceived",
      "type": "event"
    },
    {
      "anonymous": false,
      "inputs": [
        {
          "indexed": true,
          "name": "owner",
          "type": "address"
        },
        {
          "indexed": false,
          "name": "value",
          "type": "uint256"
        },
        {
          "indexed": false,
          "name": "data",
          "type": "bytes"
        }
      ],
      "name": "TokensApproved",
      "type": "event"
    },
    {
      "constant": false,
      "inputs": [
        {
          "name": "account",
          "type": "address"
        }
      ],
      "name": "newMember",
      "outputs": [],
      "payable": false,
      "stateMutability": "nonpayable",
      "type": "function"
    },
    {
      "constant": false,
      "inputs": [
        {
          "name": "account",
          "type": "address"
        },
        {
          "name": "verified",
          "type": "bool"
        }
      ],
      "name": "setVerified",
      "outputs": [],
      "payable": false,
      "stateMutability": "nonpayable",
      "type": "function"
    },
    {
      "constant": false,
      "inputs": [
        {
          "name": "account",
          "type": "address"
        },
        {
          "name": "data",
          "type": "bytes32"
        }
      ],
      "name": "setData",
      "outputs": [],
      "payable": false,
      "stateMutability": "nonpayable",
      "type": "function"
    },
    {
      "constant": false,
      "inputs": [
        {
          "name": "account",
          "type": "address"
        },
        {
          "name": "amount",
          "type": "uint256"
        }
      ],
      "name": "use",
      "outputs": [],
      "payable": false,
      "stateMutability": "nonpayable",
      "type": "function"
    },
    {
      "constant": false,
      "inputs": [
        {
          "name": "amount",
          "type": "uint256"
        }
      ],
      "name": "unstake",
      "outputs": [],
      "payable": false,
      "stateMutability": "nonpayable",
      "type": "function"
    },
    {
      "constant": true,
      "inputs": [],
      "name": "membersNumber",
      "outputs": [
        {
          "name": "",
          "type": "uint256"
        }
      ],
      "payable": false,
      "stateMutability": "view",
      "type": "function"
    },
    {
      "constant": true,
      "inputs": [],
      "name": "totalStakedTokens",
      "outputs": [
        {
          "name": "",
          "type": "uint256"
        }
      ],
      "payable": false,
      "stateMutability": "view",
      "type": "function"
    },
    {
      "constant": true,
      "inputs": [
        {
          "name": "account",
          "type": "address"
        }
      ],
      "name": "isMember",
      "outputs": [
        {
          "name": "",
          "type": "bool"
        }
      ],
      "payable": false,
      "stateMutability": "view",
      "type": "function"
    },
    {
      "constant": true,
      "inputs": [
        {
          "name": "account",
          "type": "address"
        }
      ],
      "name": "creationDateOf",
      "outputs": [
        {
          "name": "",
          "type": "uint256"
        }
      ],
      "payable": false,
      "stateMutability": "view",
      "type": "function"
    },
    {
      "constant": true,
      "inputs": [
        {
          "name": "account",
          "type": "address"
        }
      ],
      "name": "stakedTokensOf",
      "outputs": [
        {
          "name": "",
          "type": "uint256"
        }
      ],
      "payable": false,
      "stateMutability": "view",
      "type": "function"
    },
    {
      "constant": true,
      "inputs": [
        {
          "name": "account",
          "type": "address"
        }
      ],
      "name": "isVerified",
      "outputs": [
        {
          "name": "",
          "type": "bool"
        }
      ],
      "payable": false,
      "stateMutability": "view",
      "type": "function"
    },
    {
      "constant": true,
      "inputs": [
        {
          "name": "memberAddress",
          "type": "address"
        }
      ],
      "name": "getMemberByAddress",
      "outputs": [
        {
          "name": "id",
          "type": "uint256"
        },
        {
          "name": "account",
          "type": "address"
        },
        {
          "name": "fingerprint",
          "type": "bytes9"
        },
        {
          "name": "creationDate",
          "type": "uint256"
        },
        {
          "name": "stakedTokens",
          "type": "uint256"
        },
        {
          "name": "data",
          "type": "bytes32"
        },
        {
          "name": "verified",
          "type": "bool"
        }
      ],
      "payable": false,
      "stateMutability": "view",
      "type": "function"
    },
    {
      "constant": true,
      "inputs": [
        {
          "name": "memberId",
          "type": "uint256"
        }
      ],
      "name": "getMemberById",
      "outputs": [
        {
          "name": "id",
          "type": "uint256"
        },
        {
          "name": "account",
          "type": "address"
        },
        {
          "name": "fingerprint",
          "type": "bytes9"
        },
        {
          "name": "creationDate",
          "type": "uint256"
        },
        {
          "name": "stakedTokens",
          "type": "uint256"
        },
        {
          "name": "data",
          "type": "bytes32"
        },
        {
          "name": "verified",
          "type": "bool"
        }
      ],
      "payable": false,
      "stateMutability": "view",
      "type": "function"
    },
    {
      "constant": false,
      "inputs": [
        {
          "name": "tokenAddress",
          "type": "address"
        },
        {
          "name": "tokenAmount",
          "type": "uint256"
        }
      ],
      "name": "recoverERC20",
      "outputs": [],
      "payable": false,
      "stateMutability": "nonpayable",
      "type": "function"
    }
  ],
  "bytecode": "0x60806040523480156200001157600080fd5b5060405160208062001bf6833981018060405260208110156200003357600080fd5b505180620000687f01ffc9a700000000000000000000000000000000000000000000000000000000620002a4602090811b901c565b6001600160a01b0381166200007c57600080fd5b604080517f01ffc9a70000000000000000000000000000000000000000000000000000000081527f4bbee2df00000000000000000000000000000000000000000000000000000000600482015290516001600160a01b038316916301ffc9a7916024808301926020929190829003018186803b158015620000fc57600080fd5b505afa15801562000111573d6000803e3d6000fd5b505050506040513d60208110156200012857600080fd5b50518015620001e15750604080517f01ffc9a70000000000000000000000000000000000000000000000000000000081527ffb9ec8ce00000000000000000000000000000000000000000000000000000000600482015290516001600160a01b038316916301ffc9a7916024808301926020929190829003018186803b158015620001b257600080fd5b505afa158015620001c7573d6000803e3d6000fd5b505050506040513d6020811015620001de57600080fd5b50515b620001eb57600080fd5b600180546001600160a01b0319166001600160a01b038316179055620002387f88a7ca5c00000000000000000000000000000000000000000000000000000000620002a4602090811b901c565b62000250637b04a2d060e01b620002a460201b60201c565b50600280546001600160a01b0319163317908190556040516001600160a01b0391909116906000907f8be0079c531659141344cd1fd0a4f28419497f9722a3daafe3b4186f6b6457e0908290a35062000311565b7fffffffff000000000000000000000000000000000000000000000000000000008082161415620002d457600080fd5b7fffffffff00000000000000000000000000000000000000000000000000000000166000908152602081905260409020805460ff19166001179055565b6118d580620003216000396000f3fe6080604052600436106101b75760003560e01c806388a7ca5c116100ec578063a230c5241161008a578063b9209e3311610064578063b9209e33146107c9578063e52c3558146107fc578063f2fde38b1461082f578063f7bad6c214610862576101b7565b8063a230c52414610730578063ab08d4fc14610763578063ac8a584a14610796576101b7565b80638da5cb5b116100c65780638da5cb5b146106985780638f32d59b146106ad5780639870d7fe146106c25780639cf5c613146106f5576101b7565b806388a7ca5c146105775780638980f11f1461064a5780638a4fe8ac14610683576101b7565b80635cafbafb116101595780636d70f7ae116101335780636d70f7ae146104205780636f80886c14610453578063715018a61461047d5780637b04a2d014610492576101b7565b80635cafbafb14610381578063627c55f6146103b457806369fb2a20146103e7576101b7565b80633ae73259116101955780633ae73259146102725780633c0c10a2146102995780633dd9899f146102d2578063451c3d8014610350576101b7565b806301ffc9a7146101cd57806327b7ca5f146102155780632e17de7814610248575b34156101c257600080fd5b6101cb33610895565b005b3480156101d957600080fd5b50610201600480360360208110156101f057600080fd5b50356001600160e01b0319166108ed565b604080519115158252519081900360200190f35b34801561022157600080fd5b506101cb6004803603602081101561023857600080fd5b50356001600160a01b031661090c565b34801561025457600080fd5b506101cb6004803603602081101561026b57600080fd5b503561092a565b34801561027e57600080fd5b50610287610a08565b60408051918252519081900360200190f35b3480156102a557600080fd5b506101cb600480360360408110156102bc57600080fd5b506001600160a01b038135169060200135610a0e565b3480156102de57600080fd5b50610305600480360360208110156102f557600080fd5b50356001600160a01b0316610a36565b604080519788526001600160a01b0390961660208801526001600160b81b0319909416868601526060860192909252608085015260a0840152151560c0830152519081900360e00190f35b34801561035c57600080fd5b50610365610a7b565b604080516001600160a01b039092168252519081900360200190f35b34801561038d57600080fd5b506101cb600480360360208110156103a457600080fd5b50356001600160a01b0316610a8a565b3480156103c057600080fd5b506101cb600480360360208110156103d757600080fd5b50356001600160a01b0316610aa5565b3480156103f357600080fd5b506101cb6004803603604081101561040a57600080fd5b506001600160a01b038135169060200135610ac0565b34801561042c57600080fd5b506102016004803603602081101561044357600080fd5b50356001600160a01b0316610bbb565b34801561045f57600080fd5b506103056004803603602081101561047657600080fd5b5035610bd4565b34801561048957600080fd5b506101cb610c38565b34801561049e57600080fd5b5061055a600480360360608110156104b557600080fd5b6001600160a01b03823516916020810135918101906060810160408201356401000000008111156104e557600080fd5b8201836020820111156104f757600080fd5b8035906020019184600183028401116401000000008311171561051957600080fd5b91908080601f016020809104026020016040519081016040528093929190818152602001838380828437600092019190915250929550610c93945050505050565b604080516001600160e01b03199092168252519081900360200190f35b34801561058357600080fd5b5061055a6004803603608081101561059a57600080fd5b6001600160a01b038235811692602081013590911691604082013591908101906080810160608201356401000000008111156105d557600080fd5b8201836020820111156105e757600080fd5b8035906020019184600183028401116401000000008311171561060957600080fd5b91908080601f016020809104026020016040519081016040528093929190818152602001838380828437600092019190915250929550610d76945050505050565b34801561065657600080fd5b506101cb6004803603604081101561066d57600080fd5b506001600160a01b038135169060200135610e65565b34801561068f57600080fd5b50610287610fdf565b3480156106a457600080fd5b50610365610fe5565b3480156106b957600080fd5b50610201610ff4565b3480156106ce57600080fd5b506101cb600480360360208110156106e557600080fd5b50356001600160a01b0316611005565b34801561070157600080fd5b506101cb6004803603604081101561071857600080fd5b506001600160a01b038135169060200135151561101f565b34801561073c57600080fd5b506102016004803603602081101561075357600080fd5b50356001600160a01b0316611043565b34801561076f57600080fd5b506102876004803603602081101561078657600080fd5b50356001600160a01b0316611056565b3480156107a257600080fd5b506101cb600480360360208110156107b957600080fd5b50356001600160a01b0316611069565b3480156107d557600080fd5b50610201600480360360208110156107ec57600080fd5b50356001600160a01b0316611083565b34801561080857600080fd5b506102016004803603602081101561081f57600080fd5b50356001600160a01b0316611096565b34801561083b57600080fd5b506101cb6004803603602081101561085257600080fd5b50356001600160a01b03166110a9565b34801561086e57600080fd5b506102876004803603602081101561088557600080fd5b50356001600160a01b03166110c3565b60006108a860058363ffffffff6110d616565b6040805182815290519192506001600160a01b038416917fede8eed4383e9241982619b94dd83e488b274cced0fd07b8c0092a393defd52f9181900360200190a25050565b6001600160e01b03191660009081526020819052604090205460ff1690565b61091533610bbb565b61091e57600080fd5b61092781611269565b50565b61093c6005338363ffffffff6112b116565b610944610a7b565b6001600160a01b031663a9059cbb33836040518363ffffffff1660e01b815260040180836001600160a01b03166001600160a01b0316815260200182815260200192505050602060405180830381600087803b1580156109a357600080fd5b505af11580156109b7573d6000803e3d6000fd5b505050506040513d60208110156109cd57600080fd5b505060408051828152905133917f9845e367b683334e5c0b12d7b81721ac518e649376fa65e3d68324e8f34f2679919081900360200190a250565b60065490565b610a1733610bbb565b610a2057600080fd5b610a326005838363ffffffff61133c16565b5050565b6001600160a01b038116600090815260076020526040812054819081908190819081908190610a6490610bd4565b959e949d50929b5090995097509550909350915050565b6001546001600160a01b031690565b610a9333610bbb565b610a9c57600080fd5b61092781610895565b610aae33610bbb565b610ab757600080fd5b61092781611381565b610ac933611096565b610ad257600080fd5b610ae46005838363ffffffff6112b116565b610aec610a7b565b6001600160a01b031663a9059cbb33836040518363ffffffff1660e01b815260040180836001600160a01b03166001600160a01b0316815260200182815260200192505050602060405180830381600087803b158015610b4b57600080fd5b505af1158015610b5f573d6000803e3d6000fd5b505050506040513d6020811015610b7557600080fd5b505060408051828152905133916001600160a01b038516917f87becb63265cd5357feae86dabd7e41e1ee5b3a6aeb0f3773cd90163aca2903e9181900360200190a35050565b6000610bce60038363ffffffff6113c916565b92915050565b600080808080808080610bee60058a63ffffffff6113fe16565b80546001820154600283015460038401546004850154600590950154939e6001600160a01b0384169e50600160a01b90930460b81b9c50909a50985091965060ff16945092505050565b610c40610ff4565b610c4957600080fd5b6002546040516000916001600160a01b0316907f8be0079c531659141344cd1fd0a4f28419497f9722a3daafe3b4186f6b6457e0908390a3600280546001600160a01b0319169055565b6001546000906001600160a01b03163314610cad57600080fd5b836001600160a01b03167ffc47604465ac19edea172256bab2469184c3a6770701541635cf84241c2f24b484846040518083815260200180602001828103825283818151815260200191508051906020019080838360005b83811015610d1d578181015183820152602001610d05565b50505050905090810190601f168015610d4a5780820380516001836020036101000a031916815260200191505b50935050505060405180910390a2610d6384848461142c565b50600160e41b6307b04a2d029392505050565b6001546000906001600160a01b03163314610d9057600080fd5b836001600160a01b0316856001600160a01b03167f01db5e58326b109682dc160b2e51aa7bf7e8d8ccf74bc242a3c502179378905585856040518083815260200180602001828103825283818151815260200191508051906020019080838360005b83811015610e0a578181015183820152602001610df2565b50505050905090810190601f168015610e375780820380516001836020036101000a031916815260200191505b50935050505060405180910390a3610e51858585856114cd565b50600160e21b632229f29702949350505050565b610e6d610ff4565b610e7657600080fd5b610e7e610a7b565b6001600160a01b0316826001600160a01b03161415610f48576000610ea1610a7b565b6001600160a01b03166370a08231306040518263ffffffff1660e01b815260040180826001600160a01b03166001600160a01b0316815260200191505060206040518083038186803b158015610ef657600080fd5b505afa158015610f0a573d6000803e3d6000fd5b505050506040513d6020811015610f2057600080fd5b50516006549091508290610f3b90839063ffffffff6114d716565b1015610f4657600080fd5b505b816001600160a01b031663a9059cbb610f5f610fe5565b836040518363ffffffff1660e01b815260040180836001600160a01b03166001600160a01b0316815260200182815260200192505050602060405180830381600087803b158015610faf57600080fd5b505af1158015610fc3573d6000803e3d6000fd5b505050506040513d6020811015610fd957600080fd5b50505050565b60055490565b6002546001600160a01b031690565b6002546001600160a01b0316331490565b61100d610ff4565b61101657600080fd5b610927816114ec565b61102833610bbb565b61103157600080fd5b610a326005838363ffffffff61153416565b6000610bce60058363ffffffff61158816565b6000610bce60058363ffffffff6115a916565b611071610ff4565b61107a57600080fd5b610927816115d7565b6000610bce60058363ffffffff61161f16565b6000610bce60048363ffffffff6113c916565b6110b1610ff4565b6110ba57600080fd5b61092781611650565b6000610bce60058363ffffffff6116bf16565b60006001600160a01b0382166110eb57600080fd5b6110f58383611588565b156110ff57600080fd5b825460009061111590600163ffffffff6116ee16565b905060006111238483611700565b905081856002016000866001600160a01b03166001600160a01b03168152602001908152602001600020819055506040518060e00160405280838152602001856001600160a01b03168152602001826001600160b81b03191681526020014281526020016000815260200160008019168152602001600015158152508560030160008481526020019081526020016000206000820151816000015560208201518160010160006101000a8154816001600160a01b0302191690836001600160a01b0316021790555060408201518160010160146101000a81548168ffffffffffffffffff021916908360b81c0217905550606082015181600201556080820151816003015560a0820151816004015560c08201518160050160006101000a81548160ff021916908315150217905550905050818560000181905550819250505092915050565b61127a60048263ffffffff61173e16565b6040516001600160a01b038216907f34db09e115b593d4a96c3047ffae8bfd18efd935fd73d76338af3f4a8593295090600090a250565b6112bb8383611588565b6112c457600080fd5b6001600160a01b038216600090815260028401602090815260408083205483526003808701909252909120908101548211156112ff57600080fd5b6003810154611314908363ffffffff6114d716565b6003820155600184015461132e908363ffffffff6114d716565b846001018190555050505050565b6113468383611588565b61134f57600080fd5b6001600160a01b0390911660009081526002830160209081526040808320548352600390940190529190912060040155565b61139260048263ffffffff61178a16565b6040516001600160a01b038216907f1822aa3e32733968fade457518e58efe85994da84bac3654f2f88b957ad29c6590600090a250565b60006001600160a01b0382166113de57600080fd5b506001600160a01b03166000908152602091909152604090205460ff1690565b6000818152600383016020526040812060018101546001600160a01b031661142557600080fd5b9392505050565b611434610a7b565b60408051600160e01b6323b872dd0281526001600160a01b03868116600483015230602483015260448201869052915192909116916323b872dd916064808201926020929091908290030181600087803b15801561149157600080fd5b505af11580156114a5573d6000803e3d6000fd5b505050506040513d60208110156114bb57600080fd5b506114c8905083836117d2565b505050565b610fd983836117d2565b6000828211156114e657600080fd5b50900390565b6114fd60038263ffffffff61173e16565b6040516001600160a01b038216907fac6fa858e9350a46cec16539926e0fde25b7629f84b5a72bffaae4df888ae86d90600090a250565b61153e8383611588565b61154757600080fd5b6001600160a01b0391909116600090815260028301602090815260408083205483526003909401905291909120600501805460ff1916911515919091179055565b6001600160a01b031660009081526002919091016020526040902054151590565b6001600160a01b03166000908152600282016020908152604080832054835260039384019091529020015490565b6115e860038263ffffffff61178a16565b6040516001600160a01b038216907f80c0b871b97b595b16a7741c1b06fed0c6f6f558639f18ccbce50724325dc40d90600090a250565b6001600160a01b03166000908152600282016020908152604080832054835260039093019052206005015460ff1690565b6001600160a01b03811661166357600080fd5b6002546040516001600160a01b038084169216907f8be0079c531659141344cd1fd0a4f28419497f9722a3daafe3b4186f6b6457e090600090a3600280546001600160a01b0319166001600160a01b0392909216919091179055565b6001600160a01b0316600090815260028281016020908152604080842054845260039094019052919020015490565b60008282018381101561142557600080fd5b604080516001600160a01b039390931660601b6020808501919091526034808501939093528151808503909301835260549093019052805191012090565b6001600160a01b03811661175157600080fd5b61175b82826113c9565b1561176557600080fd5b6001600160a01b0316600090815260209190915260409020805460ff19166001179055565b6001600160a01b03811661179d57600080fd5b6117a782826113c9565b6117b057600080fd5b6001600160a01b0316600090815260209190915260409020805460ff19169055565b6117db82611043565b6117e8576117e882610895565b6117fa6005838363ffffffff61183d16565b6040805182815290516001600160a01b038416917fb539ca1e5c8d398ddf1c41c30166f33404941683be4683319b57669a93dad4ef919081900360200190a25050565b6118478383611588565b61185057600080fd5b6001600160a01b0382166000908152600284016020908152604080832054835260038087019092529091209081015461188f908363ffffffff6116ee16565b6003820155600184015461132e908363ffffffff6116ee1656fea165627a7a72305820363dd6bf50cba0ab1d4f6ca881b4cf1ca582440a3df26d05f77d43e4e62aa52f0029",
  "source": "pragma solidity ^0.5.7;\n\nimport \"erc-payable-token/contracts/payment/ERC1363Payable.sol\";\nimport \"../access/roles/DAORoles.sol\";\nimport \"./Organization.sol\";\n\n/**\n * @title DAO\n * @author Vittorio Minacori (https://github.com/vittominacori)\n * @dev It identifies the DAO and Organization logic\n */\ncontract DAO is ERC1363Payable, DAORoles {\n    using SafeMath for uint256;\n\n    using Organization for Organization.Members;\n    using Organization for Organization.Member;\n\n    event MemberAdded(\n        address indexed account,\n        uint256 id\n    );\n\n    event TokensStaked(\n        address indexed account,\n        uint256 value\n    );\n\n    event TokensUnstaked(\n        address indexed account,\n        uint256 value\n    );\n\n    event TokensUsed(\n        address indexed account,\n        address indexed dapp,\n        uint256 value\n    );\n\n    Organization.Members private _members;\n\n    constructor (IERC1363 acceptedToken) public ERC1363Payable(acceptedToken) {} // solhint-disable-line no-empty-blocks\n\n    /**\n     * @dev fallback. This function will create a new member\n     */\n    function () external payable { // solhint-disable-line no-complex-fallback\n        require(msg.value == 0);\n\n        _newMember(msg.sender);\n    }\n\n    /**\n     * @dev Generate a new member and the member structure\n     * @param account Address you want to make member\n     * @return uint256 The new member id\n     */\n    function newMember(address account) external onlyOperator {\n        _newMember(account);\n    }\n\n    /**\n     * @dev Set the verified status for a member\n     * @param account Address you want to update\n     * @param verified Bool the new status for verified\n     */\n    function setVerified(address account, bool verified) external onlyOperator {\n        _members.setVerified(account, verified);\n    }\n\n    /**\n     * @dev Set data for a member\n     * @param account Address you want to update\n     * @param data bytes32 updated data\n     */\n    function setData(address account, bytes32 data) external onlyOperator {\n        _members.setData(account, data);\n    }\n\n    /**\n     * @dev Use tokens from a specific account\n     * @param account Address to use the tokens from\n     * @param amount Number of tokens to use\n     */\n    function use(address account, uint256 amount) external onlyDapp {\n        _members.unstake(account, amount);\n\n        IERC20(acceptedToken()).transfer(msg.sender, amount);\n\n        emit TokensUsed(account, msg.sender, amount);\n    }\n\n    /**\n     * @dev Remove tokens from member stack\n     * @param amount Number of tokens to unstake\n     */\n    function unstake(uint256 amount) public {\n        _members.unstake(msg.sender, amount);\n\n        IERC20(acceptedToken()).transfer(msg.sender, amount);\n\n        emit TokensUnstaked(msg.sender, amount);\n    }\n\n    /**\n     * @dev Returns the members number\n     * @return uint256\n     */\n    function membersNumber() public view returns (uint256) {\n        return _members.count;\n    }\n\n    /**\n     * @dev Returns the total staked tokens number\n     * @return uint256\n     */\n    function totalStakedTokens() public view returns (uint256) {\n        return _members.totalStakedTokens;\n    }\n\n    /**\n     * @dev Returns if an address is member or not\n     * @param account Address of the member you are looking for\n     * @return bool\n     */\n    function isMember(address account) public view returns (bool) {\n        return _members.isMember(account);\n    }\n\n    /**\n     * @dev Get creation date of a member\n     * @param account Address you want to check\n     * @return uint256 Member creation date, zero otherwise\n     */\n    function creationDateOf(address account) public view returns (uint256) {\n        return _members.creationDateOf(account);\n    }\n\n    /**\n     * @dev Check how many tokens staked for given address\n     * @param account Address you want to check\n     * @return uint256 Member staked tokens\n     */\n    function stakedTokensOf(address account) public view returns (uint256) {\n        return _members.stakedTokensOf(account);\n    }\n\n    /**\n     * @dev Check if an address has been verified\n     * @param account Address you want to check\n     * @return bool\n     */\n    function isVerified(address account) public view returns (bool) {\n        return _members.isVerified(account);\n    }\n\n    /**\n     * @dev Returns the member structure\n     * @param memberAddress Address of the member you are looking for\n     * @return array\n     */\n    function getMemberByAddress(address memberAddress)\n        public\n        view\n        returns (\n            uint256 id,\n            address account,\n            bytes9 fingerprint,\n            uint256 creationDate,\n            uint256 stakedTokens,\n            bytes32 data,\n            bool verified\n        )\n    {\n        return getMemberById(_members.addressMap[memberAddress]);\n    }\n\n    /**\n     * @dev Returns the member structure\n     * @param memberId Id of the member you are looking for\n     * @return array\n     */\n    function getMemberById(uint256 memberId)\n        public\n        view\n        returns (\n            uint256 id,\n            address account,\n            bytes9 fingerprint,\n            uint256 creationDate,\n            uint256 stakedTokens,\n            bytes32 data,\n            bool verified\n        )\n    {\n        Organization.Member storage structure = _members.getMember(memberId);\n\n        id = structure.id;\n        account = structure.account;\n        fingerprint = structure.fingerprint;\n        creationDate = structure.creationDate;\n        stakedTokens = structure.stakedTokens;\n        data = structure.data;\n        verified = structure.verified;\n    }\n\n    /**\n     * @dev Allow to recover tokens from contract\n     * @param tokenAddress address The token contract address\n     * @param tokenAmount uint256 Number of tokens to be sent\n     */\n    function recoverERC20(address tokenAddress, uint256 tokenAmount) public onlyOwner {\n        if (tokenAddress == address(acceptedToken())) {\n            uint256 currentBalance = IERC20(acceptedToken()).balanceOf(address(this));\n            require(currentBalance.sub(_members.totalStakedTokens) >= tokenAmount);\n        }\n\n        IERC20(tokenAddress).transfer(owner(), tokenAmount);\n    }\n\n    /**\n     * @dev Called after validating a `onTransferReceived`\n     * @param operator address The address which called `transferAndCall` or `transferFromAndCall` function\n     * @param from address The address which are token transferred from\n     * @param value uint256 The amount of tokens transferred\n     * @param data bytes Additional data with no specified format\n     */\n    function _transferReceived(\n        address operator, // solhint-disable-line no-unused-vars\n        address from,\n        uint256 value,\n        bytes memory data // solhint-disable-line no-unused-vars\n    )\n        internal\n    {\n        _stake(from, value);\n    }\n\n    /**\n     * @dev Called after validating a `onApprovalReceived`\n     * @param owner address The address which called `approveAndCall` function\n     * @param value uint256 The amount of tokens to be spent\n     * @param data bytes Additional data with no specified format\n     */\n    function _approvalReceived(\n        address owner,\n        uint256 value,\n        bytes memory data // solhint-disable-line no-unused-vars\n    )\n        internal\n    {\n        IERC20(acceptedToken()).transferFrom(owner, address(this), value);\n\n        _stake(owner, value);\n    }\n\n    /**\n     * @dev Generate a new member and the member structure\n     * @param account Address you want to make member\n     * @return uint256 The new member id\n     */\n    function _newMember(address account) internal {\n        uint256 memberId = _members.addMember(account);\n\n        emit MemberAdded(account, memberId);\n    }\n\n    /**\n     * @dev Add tokens to member stack\n     * @param account Address you want to stake tokens\n     * @param amount Number of tokens to stake\n     */\n    function _stake(address account, uint256 amount) internal {\n        if (!isMember(account)) {\n            _newMember(account);\n        }\n\n        _members.stake(account, amount);\n\n        emit TokensStaked(account, amount);\n    }\n}\n",
  "sourcePath": "/Users/vittominacori/Projects/friendsfingers/dao-smartcontracts/contracts/dao/DAO.sol",
  "compiler": {
    "name": "solc",
    "version": "0.5.7+commit.6da8b019.Emscripten.clang"
  },
  "schemaVersion": "3.0.8",
  "updatedAt": "2019-04-30T17:00:32.743Z",
  "devdoc": {
    "author": "Vittorio Minacori (https://github.com/vittominacori)",
    "details": "It identifies the DAO and Organization logic",
    "methods": {
      "acceptedToken()": {
        "details": "The ERC1363 token accepted"
      },
      "addDapp(address)": {
        "details": "Add the `dapp` role from address",
        "params": {
          "account": "Address you want to add role"
        }
      },
      "addOperator(address)": {
        "details": "Add the `operator` role from address",
        "params": {
          "account": "Address you want to add role"
        }
      },
      "creationDateOf(address)": {
        "details": "Get creation date of a member",
        "params": {
          "account": "Address you want to check"
        },
        "return": "uint256 Member creation date, zero otherwise"
      },
      "getMemberByAddress(address)": {
        "details": "Returns the member structure",
        "params": {
          "memberAddress": "Address of the member you are looking for"
        },
        "return": "array"
      },
      "getMemberById(uint256)": {
        "details": "Returns the member structure",
        "params": {
          "memberId": "Id of the member you are looking for"
        },
        "return": "array"
      },
      "isDapp(address)": {
        "details": "Check if an address has the `dapp` role",
        "params": {
          "account": "Address you want to check"
        }
      },
      "isMember(address)": {
        "details": "Returns if an address is member or not",
        "params": {
          "account": "Address of the member you are looking for"
        },
        "return": "bool"
      },
      "isOperator(address)": {
        "details": "Check if an address has the `operator` role",
        "params": {
          "account": "Address you want to check"
        }
      },
      "isOwner()": {
        "return": "true if `msg.sender` is the owner of the contract."
      },
      "isVerified(address)": {
        "details": "Check if an address has been verified",
        "params": {
          "account": "Address you want to check"
        },
        "return": "bool"
      },
      "membersNumber()": {
        "details": "Returns the members number",
        "return": "uint256"
      },
      "newMember(address)": {
        "details": "Generate a new member and the member structure",
        "params": {
          "account": "Address you want to make member"
        },
        "return": "uint256 The new member id"
      },
      "owner()": {
        "return": "the address of the owner."
      },
      "recoverERC20(address,uint256)": {
        "details": "Allow to recover tokens from contract",
        "params": {
          "tokenAddress": "address The token contract address",
          "tokenAmount": "uint256 Number of tokens to be sent"
        }
      },
      "removeDapp(address)": {
        "details": "Remove the `operator` role from address",
        "params": {
          "account": "Address you want to remove role"
        }
      },
      "removeOperator(address)": {
        "details": "Remove the `operator` role from address",
        "params": {
          "account": "Address you want to remove role"
        }
      },
      "renounceOwnership()": {
        "details": "Allows the current owner to relinquish control of the contract. It will not be possible to call the functions with the `onlyOwner` modifier anymore."
      },
      "setData(address,bytes32)": {
        "details": "Set data for a member",
        "params": {
          "account": "Address you want to update",
          "data": "bytes32 updated data"
        }
      },
      "setVerified(address,bool)": {
        "details": "Set the verified status for a member",
        "params": {
          "account": "Address you want to update",
          "verified": "Bool the new status for verified"
        }
      },
      "stakedTokensOf(address)": {
        "details": "Check how many tokens staked for given address",
        "params": {
          "account": "Address you want to check"
        },
        "return": "uint256 Member staked tokens"
      },
      "supportsInterface(bytes4)": {
        "details": "implement supportsInterface(bytes4) using a lookup table"
      },
      "totalStakedTokens()": {
        "details": "Returns the total staked tokens number",
        "return": "uint256"
      },
      "transferOwnership(address)": {
        "details": "Allows the current owner to transfer control of the contract to a newOwner.",
        "params": {
          "newOwner": "The address to transfer ownership to."
        }
      },
      "unstake(uint256)": {
        "details": "Remove tokens from member stack",
        "params": {
          "amount": "Number of tokens to unstake"
        }
      },
      "use(address,uint256)": {
        "details": "Use tokens from a specific account",
        "params": {
          "account": "Address to use the tokens from",
          "amount": "Number of tokens to use"
        }
      }
    },
    "title": "DAO"
  },
  "userdoc": {
    "methods": {
      "renounceOwnership()": {
        "notice": "Renouncing ownership will leave the contract without an owner, thereby removing any functionality that is only available to the owner."
      }
    }
  }
}