{
  "contractName": "DAO",
  "abi": [
    {
      "constant": true,
      "inputs": [
        {
          "name": "interfaceId",
          "type": "bytes4"
        }
      ],
      "name": "supportsInterface",
      "outputs": [
        {
          "name": "",
          "type": "bool"
        }
      ],
      "payable": false,
      "stateMutability": "view",
      "type": "function"
    },
    {
      "constant": false,
      "inputs": [
        {
          "name": "account",
          "type": "address"
        }
      ],
      "name": "addDapp",
      "outputs": [],
      "payable": false,
      "stateMutability": "nonpayable",
      "type": "function"
    },
    {
      "constant": true,
      "inputs": [],
      "name": "acceptedToken",
      "outputs": [
        {
          "name": "",
          "type": "address"
        }
      ],
      "payable": false,
      "stateMutability": "view",
      "type": "function"
    },
    {
      "constant": false,
      "inputs": [
        {
          "name": "account",
          "type": "address"
        }
      ],
      "name": "removeDapp",
      "outputs": [],
      "payable": false,
      "stateMutability": "nonpayable",
      "type": "function"
    },
    {
      "constant": true,
      "inputs": [
        {
          "name": "account",
          "type": "address"
        }
      ],
      "name": "isOperator",
      "outputs": [
        {
          "name": "",
          "type": "bool"
        }
      ],
      "payable": false,
      "stateMutability": "view",
      "type": "function"
    },
    {
      "constant": false,
      "inputs": [],
      "name": "renounceOwnership",
      "outputs": [],
      "payable": false,
      "stateMutability": "nonpayable",
      "type": "function"
    },
    {
      "constant": false,
      "inputs": [
        {
          "name": "owner",
          "type": "address"
        },
        {
          "name": "value",
          "type": "uint256"
        },
        {
          "name": "data",
          "type": "bytes"
        }
      ],
      "name": "onApprovalReceived",
      "outputs": [
        {
          "name": "",
          "type": "bytes4"
        }
      ],
      "payable": false,
      "stateMutability": "nonpayable",
      "type": "function"
    },
    {
      "constant": false,
      "inputs": [
        {
          "name": "operator",
          "type": "address"
        },
        {
          "name": "from",
          "type": "address"
        },
        {
          "name": "value",
          "type": "uint256"
        },
        {
          "name": "data",
          "type": "bytes"
        }
      ],
      "name": "onTransferReceived",
      "outputs": [
        {
          "name": "",
          "type": "bytes4"
        }
      ],
      "payable": false,
      "stateMutability": "nonpayable",
      "type": "function"
    },
    {
      "constant": true,
      "inputs": [],
      "name": "owner",
      "outputs": [
        {
          "name": "",
          "type": "address"
        }
      ],
      "payable": false,
      "stateMutability": "view",
      "type": "function"
    },
    {
      "constant": true,
      "inputs": [],
      "name": "isOwner",
      "outputs": [
        {
          "name": "",
          "type": "bool"
        }
      ],
      "payable": false,
      "stateMutability": "view",
      "type": "function"
    },
    {
      "constant": false,
      "inputs": [
        {
          "name": "account",
          "type": "address"
        }
      ],
      "name": "addOperator",
      "outputs": [],
      "payable": false,
      "stateMutability": "nonpayable",
      "type": "function"
    },
    {
      "constant": false,
      "inputs": [
        {
          "name": "account",
          "type": "address"
        }
      ],
      "name": "removeOperator",
      "outputs": [],
      "payable": false,
      "stateMutability": "nonpayable",
      "type": "function"
    },
    {
      "constant": true,
      "inputs": [
        {
          "name": "account",
          "type": "address"
        }
      ],
      "name": "isDapp",
      "outputs": [
        {
          "name": "",
          "type": "bool"
        }
      ],
      "payable": false,
      "stateMutability": "view",
      "type": "function"
    },
    {
      "constant": false,
      "inputs": [
        {
          "name": "newOwner",
          "type": "address"
        }
      ],
      "name": "transferOwnership",
      "outputs": [],
      "payable": false,
      "stateMutability": "nonpayable",
      "type": "function"
    },
    {
      "inputs": [
        {
          "name": "acceptedToken",
          "type": "address"
        }
      ],
      "payable": false,
      "stateMutability": "nonpayable",
      "type": "constructor"
    },
    {
      "payable": true,
      "stateMutability": "payable",
      "type": "fallback"
    },
    {
      "anonymous": false,
      "inputs": [
        {
          "indexed": true,
          "name": "account",
          "type": "address"
        },
        {
          "indexed": false,
          "name": "id",
          "type": "uint256"
        }
      ],
      "name": "MemberAdded",
      "type": "event"
    },
    {
      "anonymous": false,
      "inputs": [
        {
          "indexed": true,
          "name": "account",
          "type": "address"
        },
        {
          "indexed": false,
          "name": "value",
          "type": "uint256"
        }
      ],
      "name": "TokensStaked",
      "type": "event"
    },
    {
      "anonymous": false,
      "inputs": [
        {
          "indexed": true,
          "name": "account",
          "type": "address"
        },
        {
          "indexed": false,
          "name": "value",
          "type": "uint256"
        }
      ],
      "name": "TokensUnstaked",
      "type": "event"
    },
    {
      "anonymous": false,
      "inputs": [
        {
          "indexed": true,
          "name": "account",
          "type": "address"
        },
        {
          "indexed": true,
          "name": "dapp",
          "type": "address"
        },
        {
          "indexed": false,
          "name": "value",
          "type": "uint256"
        }
      ],
      "name": "TokensUsed",
      "type": "event"
    },
    {
      "anonymous": false,
      "inputs": [
        {
          "indexed": true,
          "name": "account",
          "type": "address"
        }
      ],
      "name": "OperatorAdded",
      "type": "event"
    },
    {
      "anonymous": false,
      "inputs": [
        {
          "indexed": true,
          "name": "account",
          "type": "address"
        }
      ],
      "name": "OperatorRemoved",
      "type": "event"
    },
    {
      "anonymous": false,
      "inputs": [
        {
          "indexed": true,
          "name": "account",
          "type": "address"
        }
      ],
      "name": "DappAdded",
      "type": "event"
    },
    {
      "anonymous": false,
      "inputs": [
        {
          "indexed": true,
          "name": "account",
          "type": "address"
        }
      ],
      "name": "DappRemoved",
      "type": "event"
    },
    {
      "anonymous": false,
      "inputs": [
        {
          "indexed": true,
          "name": "previousOwner",
          "type": "address"
        },
        {
          "indexed": true,
          "name": "newOwner",
          "type": "address"
        }
      ],
      "name": "OwnershipTransferred",
      "type": "event"
    },
    {
      "anonymous": false,
      "inputs": [
        {
          "indexed": true,
          "name": "operator",
          "type": "address"
        },
        {
          "indexed": true,
          "name": "from",
          "type": "address"
        },
        {
          "indexed": false,
          "name": "value",
          "type": "uint256"
        },
        {
          "indexed": false,
          "name": "data",
          "type": "bytes"
        }
      ],
      "name": "TokensReceived",
      "type": "event"
    },
    {
      "anonymous": false,
      "inputs": [
        {
          "indexed": true,
          "name": "owner",
          "type": "address"
        },
        {
          "indexed": false,
          "name": "value",
          "type": "uint256"
        },
        {
          "indexed": false,
          "name": "data",
          "type": "bytes"
        }
      ],
      "name": "TokensApproved",
      "type": "event"
    },
    {
      "constant": false,
      "inputs": [
        {
          "name": "account",
          "type": "address"
        }
      ],
      "name": "newMember",
      "outputs": [],
      "payable": false,
      "stateMutability": "nonpayable",
      "type": "function"
    },
    {
      "constant": false,
      "inputs": [
        {
          "name": "amount",
          "type": "uint256"
        }
      ],
      "name": "unstake",
      "outputs": [],
      "payable": false,
      "stateMutability": "nonpayable",
      "type": "function"
    },
    {
      "constant": false,
      "inputs": [
        {
          "name": "account",
          "type": "address"
        },
        {
          "name": "amount",
          "type": "uint256"
        }
      ],
      "name": "use",
      "outputs": [],
      "payable": false,
      "stateMutability": "nonpayable",
      "type": "function"
    },
    {
      "constant": true,
      "inputs": [],
      "name": "membersNumber",
      "outputs": [
        {
          "name": "",
          "type": "uint256"
        }
      ],
      "payable": false,
      "stateMutability": "view",
      "type": "function"
    },
    {
      "constant": true,
      "inputs": [],
      "name": "totalStakedTokens",
      "outputs": [
        {
          "name": "",
          "type": "uint256"
        }
      ],
      "payable": false,
      "stateMutability": "view",
      "type": "function"
    },
    {
      "constant": true,
      "inputs": [
        {
          "name": "account",
          "type": "address"
        }
      ],
      "name": "isMember",
      "outputs": [
        {
          "name": "",
          "type": "bool"
        }
      ],
      "payable": false,
      "stateMutability": "view",
      "type": "function"
    },
    {
      "constant": true,
      "inputs": [
        {
          "name": "account",
          "type": "address"
        }
      ],
      "name": "creationDateOf",
      "outputs": [
        {
          "name": "",
          "type": "uint256"
        }
      ],
      "payable": false,
      "stateMutability": "view",
      "type": "function"
    },
    {
      "constant": true,
      "inputs": [
        {
          "name": "account",
          "type": "address"
        }
      ],
      "name": "stakedTokensOf",
      "outputs": [
        {
          "name": "",
          "type": "uint256"
        }
      ],
      "payable": false,
      "stateMutability": "view",
      "type": "function"
    },
    {
      "constant": true,
      "inputs": [
        {
          "name": "account",
          "type": "address"
        }
      ],
      "name": "isVerified",
      "outputs": [
        {
          "name": "",
          "type": "bool"
        }
      ],
      "payable": false,
      "stateMutability": "view",
      "type": "function"
    },
    {
      "constant": true,
      "inputs": [
        {
          "name": "memberAddress",
          "type": "address"
        }
      ],
      "name": "getMemberByAddress",
      "outputs": [
        {
          "name": "id",
          "type": "uint256"
        },
        {
          "name": "account",
          "type": "address"
        },
        {
          "name": "fingerprint",
          "type": "bytes9"
        },
        {
          "name": "creationDate",
          "type": "uint256"
        },
        {
          "name": "stakedTokens",
          "type": "uint256"
        },
        {
          "name": "data",
          "type": "bytes32"
        },
        {
          "name": "verified",
          "type": "bool"
        }
      ],
      "payable": false,
      "stateMutability": "view",
      "type": "function"
    },
    {
      "constant": true,
      "inputs": [
        {
          "name": "memberId",
          "type": "uint256"
        }
      ],
      "name": "getMemberById",
      "outputs": [
        {
          "name": "id",
          "type": "uint256"
        },
        {
          "name": "account",
          "type": "address"
        },
        {
          "name": "fingerprint",
          "type": "bytes9"
        },
        {
          "name": "creationDate",
          "type": "uint256"
        },
        {
          "name": "stakedTokens",
          "type": "uint256"
        },
        {
          "name": "data",
          "type": "bytes32"
        },
        {
          "name": "verified",
          "type": "bool"
        }
      ],
      "payable": false,
      "stateMutability": "view",
      "type": "function"
    }
  ],
  "bytecode": "0x60806040523480156200001157600080fd5b50604051602080620019e1833981018060405260208110156200003357600080fd5b5051806200006a7f01ffc9a700000000000000000000000000000000000000000000000000000000640100000000620002c4810204565b600160a060020a0381166200007e57600080fd5b604080517f01ffc9a70000000000000000000000000000000000000000000000000000000081527f4bbee2df0000000000000000000000000000000000000000000000000000000060048201529051600160a060020a038316916301ffc9a7916024808301926020929190829003018186803b158015620000fe57600080fd5b505afa15801562000113573d6000803e3d6000fd5b505050506040513d60208110156200012a57600080fd5b50518015620001e35750604080517f01ffc9a70000000000000000000000000000000000000000000000000000000081527ffb9ec8ce0000000000000000000000000000000000000000000000000000000060048201529051600160a060020a038316916301ffc9a7916024808301926020929190829003018186803b158015620001b457600080fd5b505afa158015620001c9573d6000803e3d6000fd5b505050506040513d6020811015620001e057600080fd5b50515b620001ed57600080fd5b60018054600160a060020a031916600160a060020a0383161790556200023c7f88a7ca5c00000000000000000000000000000000000000000000000000000000640100000000620002c4810204565b620002707f7b04a2d000000000000000000000000000000000000000000000000000000000640100000000620002c4810204565b5060028054600160a060020a031916331790819055604051600160a060020a0391909116906000907f8be0079c531659141344cd1fd0a4f28419497f9722a3daafe3b4186f6b6457e0908290a35062000331565b7fffffffff000000000000000000000000000000000000000000000000000000008082161415620002f457600080fd5b7fffffffff00000000000000000000000000000000000000000000000000000000166000908152602081905260409020805460ff19166001179055565b6116a080620003416000396000f3fe60806040526004361061016a5760003560e060020a900480637b04a2d0116100d5578063a230c5241161008e578063b9209e3311610068578063b9209e3314610709578063e52c35581461073c578063f2fde38b1461076f578063f7bad6c2146107a25761016a565b8063a230c52414610670578063ab08d4fc146106a3578063ac8a584a146106d65761016a565b80637b04a2d01461043157806388a7ca5c1461052b5780638a4fe8ac146105fe5780638da5cb5b146106135780638f32d59b146106285780639870d7fe1461063d5761016a565b80635cafbafb116101275780635cafbafb14610320578063627c55f61461035357806369fb2a20146103865780636d70f7ae146103bf5780636f80886c146103f2578063715018a61461041c5761016a565b806301ffc9a71461018057806327b7ca5f146101dd5780632e17de78146102105780633ae732591461023a5780633dd9899f14610261578063451c3d80146102ef575b341561017557600080fd5b61017e336107d5565b005b34801561018c57600080fd5b506101c9600480360360208110156101a357600080fd5b50357bffffffffffffffffffffffffffffffffffffffffffffffffffffffff191661082d565b604080519115158252519081900360200190f35b3480156101e957600080fd5b5061017e6004803603602081101561020057600080fd5b5035600160a060020a0316610861565b34801561021c57600080fd5b5061017e6004803603602081101561023357600080fd5b503561087f565b34801561024657600080fd5b5061024f610960565b60408051918252519081900360200190f35b34801561026d57600080fd5b506102946004803603602081101561028457600080fd5b5035600160a060020a0316610966565b60408051978852600160a060020a03909616602088015276ffffffffffffffffffffffffffffffffffffffffffffff19909416868601526060860192909252608085015260a0840152151560c0830152519081900360e00190f35b3480156102fb57600080fd5b506103046109bc565b60408051600160a060020a039092168252519081900360200190f35b34801561032c57600080fd5b5061017e6004803603602081101561034357600080fd5b5035600160a060020a03166109cb565b34801561035f57600080fd5b5061017e6004803603602081101561037657600080fd5b5035600160a060020a03166109e6565b34801561039257600080fd5b5061017e600480360360408110156103a957600080fd5b50600160a060020a038135169060200135610a01565b3480156103cb57600080fd5b506101c9600480360360208110156103e257600080fd5b5035600160a060020a0316610aff565b3480156103fe57600080fd5b506102946004803603602081101561041557600080fd5b5035610b18565b34801561042857600080fd5b5061017e610ba4565b34801561043d57600080fd5b506104f96004803603606081101561045457600080fd5b600160a060020a038235169160208101359181019060608101604082013564010000000081111561048457600080fd5b82018360208201111561049657600080fd5b803590602001918460018302840111640100000000831117156104b857600080fd5b91908080601f016020809104026020016040519081016040528093929190818152602001838380828437600092019190915250929550610c0c945050505050565b604080517bffffffffffffffffffffffffffffffffffffffffffffffffffffffff199092168252519081900360200190f35b34801561053757600080fd5b506104f96004803603608081101561054e57600080fd5b600160a060020a0382358116926020810135909116916040820135919081019060808101606082013564010000000081111561058957600080fd5b82018360208201111561059b57600080fd5b803590602001918460018302840111640100000000831117156105bd57600080fd5b91908080601f016020809104026020016040519081016040528093929190818152602001838380828437600092019190915250929550610d05945050505050565b34801561060a57600080fd5b5061024f610e0a565b34801561061f57600080fd5b50610304610e10565b34801561063457600080fd5b506101c9610e1f565b34801561064957600080fd5b5061017e6004803603602081101561066057600080fd5b5035600160a060020a0316610e30565b34801561067c57600080fd5b506101c96004803603602081101561069357600080fd5b5035600160a060020a0316610e4a565b3480156106af57600080fd5b5061024f600480360360208110156106c657600080fd5b5035600160a060020a0316610e5d565b3480156106e257600080fd5b5061017e600480360360208110156106f957600080fd5b5035600160a060020a0316610e70565b34801561071557600080fd5b506101c96004803603602081101561072c57600080fd5b5035600160a060020a0316610e8a565b34801561074857600080fd5b506101c96004803603602081101561075f57600080fd5b5035600160a060020a0316610e9d565b34801561077b57600080fd5b5061017e6004803603602081101561079257600080fd5b5035600160a060020a0316610eb0565b3480156107ae57600080fd5b5061024f600480360360208110156107c557600080fd5b5035600160a060020a0316610eca565b60006107e860058363ffffffff610edd16565b604080518281529051919250600160a060020a038416917fede8eed4383e9241982619b94dd83e488b274cced0fd07b8c0092a393defd52f9181900360200190a25050565b7bffffffffffffffffffffffffffffffffffffffffffffffffffffffff191660009081526020819052604090205460ff1690565b61086a33610aff565b61087357600080fd5b61087c81611098565b50565b6108916005338363ffffffff6110e016565b6108996109bc565b600160a060020a031663a9059cbb33836040518363ffffffff1660e060020a0281526004018083600160a060020a0316600160a060020a0316815260200182815260200192505050602060405180830381600087803b1580156108fb57600080fd5b505af115801561090f573d6000803e3d6000fd5b505050506040513d602081101561092557600080fd5b505060408051828152905133917f9845e367b683334e5c0b12d7b81721ac518e649376fa65e3d68324e8f34f2679919081900360200190a250565b60065490565b600080600080600080600061097a88610e4a565b61098357600080fd5b600160a060020a0388166000908152600760205260409020546109a590610b18565b959e949d50929b5090995097509550909350915050565b600154600160a060020a031690565b6109d433610aff565b6109dd57600080fd5b61087c816107d5565b6109ef33610aff565b6109f857600080fd5b61087c8161116b565b610a0a33610e9d565b610a1357600080fd5b610a256005838363ffffffff6110e016565b610a2d6109bc565b600160a060020a031663a9059cbb33836040518363ffffffff1660e060020a0281526004018083600160a060020a0316600160a060020a0316815260200182815260200192505050602060405180830381600087803b158015610a8f57600080fd5b505af1158015610aa3573d6000803e3d6000fd5b505050506040513d6020811015610ab957600080fd5b50506040805182815290513391600160a060020a038516917f87becb63265cd5357feae86dabd7e41e1ee5b3a6aeb0f3773cd90163aca2903e9181900360200190a35050565b6000610b1260038363ffffffff6111b316565b92915050565b600080808080808080610b3260058a63ffffffff6111e816565b80546001820154600283015460038401546004850154600590950154939e600160a060020a0384169e507401000000000000000000000000000000000000000090930477010000000000000000000000000000000000000000000000029c50909a50985091965060ff16945092505050565b610bac610e1f565b610bb557600080fd5b600254604051600091600160a060020a0316907f8be0079c531659141344cd1fd0a4f28419497f9722a3daafe3b4186f6b6457e0908390a36002805473ffffffffffffffffffffffffffffffffffffffff19169055565b600154600090600160a060020a03163314610c2657600080fd5b83600160a060020a03167ffc47604465ac19edea172256bab2469184c3a6770701541635cf84241c2f24b484846040518083815260200180602001828103825283818151815260200191508051906020019080838360005b83811015610c96578181015183820152602001610c7e565b50505050905090810190601f168015610cc35780820380516001836020036101000a031916815260200191505b50935050505060405180910390a2610cdc848484611216565b507f7b04a2d0000000000000000000000000000000000000000000000000000000009392505050565b600154600090600160a060020a03163314610d1f57600080fd5b83600160a060020a031685600160a060020a03167f01db5e58326b109682dc160b2e51aa7bf7e8d8ccf74bc242a3c502179378905585856040518083815260200180602001828103825283818151815260200191508051906020019080838360005b83811015610d99578181015183820152602001610d81565b50505050905090810190601f168015610dc65780820380516001836020036101000a031916815260200191505b50935050505060405180910390a3610de0858585856112cd565b507f88a7ca5c00000000000000000000000000000000000000000000000000000000949350505050565b60055490565b600254600160a060020a031690565b600254600160a060020a0316331490565b610e38610e1f565b610e4157600080fd5b61087c816112dd565b6000610b1260058363ffffffff61132516565b6000610b1260058363ffffffff61134616565b610e78610e1f565b610e8157600080fd5b61087c81611374565b6000610b1260058363ffffffff6113bc16565b6000610b1260048363ffffffff6111b316565b610eb8610e1f565b610ec157600080fd5b61087c816113ed565b6000610b1260058363ffffffff61146916565b6000600160a060020a038216610ef257600080fd5b610efc8383611325565b15610f0657600080fd5b8254600090610f1c90600163ffffffff61149816565b90506000610f2a84836114aa565b90508185600201600086600160a060020a0316600160a060020a03168152602001908152602001600020819055506040518060e0016040528083815260200185600160a060020a031681526020018276ffffffffffffffffffffffffffffffffffffffffffffff191681526020014281526020016000815260200160008019168152602001600015158152508560030160008481526020019081526020016000206000820151816000015560208201518160010160006101000a815481600160a060020a030219169083600160a060020a0316021790555060408201518160010160146101000a81548168ffffffffffffffffff02191690837701000000000000000000000000000000000000000000000090040217905550606082015181600201556080820151816003015560a0820151816004015560c08201518160050160006101000a81548160ff021916908315150217905550905050818560000181905550819250505092915050565b6110a960048263ffffffff6114f416565b604051600160a060020a038216907f34db09e115b593d4a96c3047ffae8bfd18efd935fd73d76338af3f4a8593295090600090a250565b6110ea8383611325565b6110f357600080fd5b600160a060020a0382166000908152600284016020908152604080832054835260038087019092529091209081015482111561112e57600080fd5b6003810154611143908363ffffffff61154016565b6003820155600184015461115d908363ffffffff61154016565b846001018190555050505050565b61117c60048263ffffffff61155516565b604051600160a060020a038216907f1822aa3e32733968fade457518e58efe85994da84bac3654f2f88b957ad29c6590600090a250565b6000600160a060020a0382166111c857600080fd5b50600160a060020a03166000908152602091909152604090205460ff1690565b600081815260038301602052604081206001810154600160a060020a031661120f57600080fd5b9392505050565b61121e6109bc565b604080517f23b872dd000000000000000000000000000000000000000000000000000000008152600160a060020a03868116600483015230602483015260448201869052915192909116916323b872dd916064808201926020929091908290030181600087803b15801561129157600080fd5b505af11580156112a5573d6000803e3d6000fd5b505050506040513d60208110156112bb57600080fd5b506112c89050838361159d565b505050565b6112d7838361159d565b50505050565b6112ee60038263ffffffff6114f416565b604051600160a060020a038216907fac6fa858e9350a46cec16539926e0fde25b7629f84b5a72bffaae4df888ae86d90600090a250565b600160a060020a031660009081526002919091016020526040902054151590565b600160a060020a03166000908152600282016020908152604080832054835260039384019091529020015490565b61138560038263ffffffff61155516565b604051600160a060020a038216907f80c0b871b97b595b16a7741c1b06fed0c6f6f558639f18ccbce50724325dc40d90600090a250565b600160a060020a03166000908152600282016020908152604080832054835260039093019052206005015460ff1690565b600160a060020a03811661140057600080fd5b600254604051600160a060020a038084169216907f8be0079c531659141344cd1fd0a4f28419497f9722a3daafe3b4186f6b6457e090600090a36002805473ffffffffffffffffffffffffffffffffffffffff1916600160a060020a0392909216919091179055565b600160a060020a0316600090815260028281016020908152604080842054845260039094019052919020015490565b60008282018381101561120f57600080fd5b60408051600160a060020a03939093166c01000000000000000000000000026020808501919091526034808501939093528151808503909301835260549093019052805191012090565b600160a060020a03811661150757600080fd5b61151182826111b3565b1561151b57600080fd5b600160a060020a0316600090815260209190915260409020805460ff19166001179055565b60008282111561154f57600080fd5b50900390565b600160a060020a03811661156857600080fd5b61157282826111b3565b61157b57600080fd5b600160a060020a0316600090815260209190915260409020805460ff19169055565b6115a682610e4a565b6115b3576115b3826107d5565b6115c56005838363ffffffff61160816565b604080518281529051600160a060020a038416917fb539ca1e5c8d398ddf1c41c30166f33404941683be4683319b57669a93dad4ef919081900360200190a25050565b6116128383611325565b61161b57600080fd5b600160a060020a0382166000908152600284016020908152604080832054835260038087019092529091209081015461165a908363ffffffff61149816565b6003820155600184015461115d908363ffffffff6114981656fea165627a7a72305820717c60cf72b2c4f91a1ae1a08951e05ff56aa831acb7c73c13b238118e16c95a0029",
  "source": "pragma solidity ^0.5.7;\n\nimport \"erc-payable-token/contracts/payment/ERC1363Payable.sol\";\nimport \"../access/roles/DAORoles.sol\";\nimport \"./Organization.sol\";\n\n/**\n * @title DAO\n * @author Vittorio Minacori (https://github.com/vittominacori)\n * @dev It identifies the DAO and Organization logic\n */\ncontract DAO is ERC1363Payable, DAORoles {\n    using Organization for Organization.Members;\n    using Organization for Organization.Member;\n\n    event MemberAdded(\n        address indexed account,\n        uint256 id\n    );\n\n    event TokensStaked(\n        address indexed account,\n        uint256 value\n    );\n\n    event TokensUnstaked(\n        address indexed account,\n        uint256 value\n    );\n\n    event TokensUsed(\n        address indexed account,\n        address indexed dapp,\n        uint256 value\n    );\n\n    Organization.Members private _members;\n\n    constructor (IERC1363 acceptedToken) public ERC1363Payable(acceptedToken) {} // solhint-disable-line no-empty-blocks\n\n    /**\n     * @dev fallback. This function will create a new member\n     */\n    function () external payable { // solhint-disable-line no-complex-fallback\n        require(msg.value == 0);\n\n        _newMember(msg.sender);\n    }\n\n    /**\n     * @dev Generate a new member and the member structure\n     * @param account Address you want to make member\n     * @return uint256 The new member id\n     */\n    function newMember(address account) external onlyOperator {\n        _newMember(account);\n    }\n\n    /**\n     * @dev Remove tokens from member stack\n     * @param amount Number of tokens to unstake\n     */\n    function unstake(uint256 amount) public {\n        _members.unstake(msg.sender, amount);\n\n        IERC20(acceptedToken()).transfer(msg.sender, amount);\n\n        emit TokensUnstaked(msg.sender, amount);\n    }\n\n    /**\n     * @dev Use tokens from a specific account\n     * @param account Address to use the tokens from\n     * @param amount Number of tokens to use\n     */\n    function use(address account, uint256 amount) public onlyDapp {\n        _members.unstake(account, amount);\n\n        IERC20(acceptedToken()).transfer(msg.sender, amount);\n\n        emit TokensUsed(account, msg.sender, amount);\n    }\n\n    /**\n     * @dev Returns the members number\n     * @return uint256\n     */\n    function membersNumber() public view returns (uint256) {\n        return _members.count;\n    }\n\n    /**\n     * @dev Returns the total staked tokens number\n     * @return uint256\n     */\n    function totalStakedTokens() public view returns (uint256) {\n        return _members.totalStakedTokens;\n    }\n\n    /**\n     * @dev Returns if an address is member or not\n     * @param account Address of the member you are looking for\n     * @return bool\n     */\n    function isMember(address account) public view returns (bool) {\n        return _members.isMember(account);\n    }\n\n    /**\n     * @dev Get creation date of a member\n     * @param account Address you want to check\n     * @return uint256 Member creation date, zero otherwise\n     */\n    function creationDateOf(address account) public view returns (uint256) {\n        return _members.creationDateOf(account);\n    }\n\n    /**\n     * @dev Check how many tokens staked for given address\n     * @param account Address you want to check\n     * @return uint256 Member staked tokens\n     */\n    function stakedTokensOf(address account) public view returns (uint256) {\n        return _members.stakedTokensOf(account);\n    }\n\n    /**\n     * @dev Check if an address has been verified\n     * @param account Address you want to check\n     * @return bool\n     */\n    function isVerified(address account) public view returns (bool) {\n        return _members.isVerified(account);\n    }\n\n    /**\n     * @dev Returns the member structure\n     * @param memberAddress Address of the member you are looking for\n     * @return array\n     */\n    function getMemberByAddress(address memberAddress)\n        public\n        view\n        returns (\n            uint256 id,\n            address account,\n            bytes9 fingerprint,\n            uint256 creationDate,\n            uint256 stakedTokens,\n            bytes32 data,\n            bool verified\n        )\n    {\n        require(isMember(memberAddress));\n\n        return getMemberById(_members.addressMap[memberAddress]);\n    }\n\n    /**\n     * @dev Returns the member structure\n     * @param memberId Id of the member you are looking for\n     * @return array\n     */\n    function getMemberById(uint256 memberId)\n        public\n        view\n        returns (\n            uint256 id,\n            address account,\n            bytes9 fingerprint,\n            uint256 creationDate,\n            uint256 stakedTokens,\n            bytes32 data,\n            bool verified\n        )\n    {\n        Organization.Member storage structure = _members.getMember(memberId);\n\n        id = structure.id;\n        account = structure.account;\n        fingerprint = structure.fingerprint;\n        creationDate = structure.creationDate;\n        stakedTokens = structure.stakedTokens;\n        data = structure.data;\n        verified = structure.verified;\n    }\n\n    /**\n     * @dev Called after validating a `onTransferReceived`\n     * @param operator address The address which called `transferAndCall` or `transferFromAndCall` function\n     * @param from address The address which are token transferred from\n     * @param value uint256 The amount of tokens transferred\n     * @param data bytes Additional data with no specified format\n     */\n    function _transferReceived(\n        address operator, // solhint-disable-line no-unused-vars\n        address from,\n        uint256 value,\n        bytes memory data // solhint-disable-line no-unused-vars\n    )\n        internal\n    {\n        _stake(from, value);\n    }\n\n    /**\n     * @dev Called after validating a `onApprovalReceived`\n     * @param owner address The address which called `approveAndCall` function\n     * @param value uint256 The amount of tokens to be spent\n     * @param data bytes Additional data with no specified format\n     */\n    function _approvalReceived(\n        address owner,\n        uint256 value,\n        bytes memory data // solhint-disable-line no-unused-vars\n    )\n        internal\n    {\n        IERC20(acceptedToken()).transferFrom(owner, address(this), value);\n\n        _stake(owner, value);\n    }\n\n    /**\n     * @dev Generate a new member and the member structure\n     * @param account Address you want to make member\n     * @return uint256 The new member id\n     */\n    function _newMember(address account) internal {\n        uint256 memberId = _members.addMember(account);\n\n        emit MemberAdded(account, memberId);\n    }\n\n    /**\n     * @dev Add tokens to member stack\n     * @param account Address you want to stake tokens\n     * @param amount Number of tokens to stake\n     */\n    function _stake(address account, uint256 amount) internal {\n        if (!isMember(account)) {\n            _newMember(account);\n        }\n\n        _members.stake(account, amount);\n\n        emit TokensStaked(account, amount);\n    }\n}\n",
  "sourcePath": "/Users/vittominacori/Projects/friendsfingers/dao-smartcontracts/contracts/dao/DAO.sol",
  "compiler": {
    "name": "solc",
    "version": "0.5.7+commit.6da8b019.Emscripten.clang"
  },
  "schemaVersion": "3.0.6",
  "updatedAt": "2019-04-18T20:52:15.748Z",
  "devdoc": {
    "author": "Vittorio Minacori (https://github.com/vittominacori)",
    "details": "It identifies the DAO and Organization logic",
    "methods": {
      "acceptedToken()": {
        "details": "The ERC1363 token accepted"
      },
      "addDapp(address)": {
        "details": "Add the `dapp` role from address",
        "params": {
          "account": "Address you want to add role"
        }
      },
      "addOperator(address)": {
        "details": "Add the `operator` role from address",
        "params": {
          "account": "Address you want to add role"
        }
      },
      "creationDateOf(address)": {
        "details": "Get creation date of a member",
        "params": {
          "account": "Address you want to check"
        },
        "return": "uint256 Member creation date, zero otherwise"
      },
      "getMemberByAddress(address)": {
        "details": "Returns the member structure",
        "params": {
          "memberAddress": "Address of the member you are looking for"
        },
        "return": "array"
      },
      "getMemberById(uint256)": {
        "details": "Returns the member structure",
        "params": {
          "memberId": "Id of the member you are looking for"
        },
        "return": "array"
      },
      "isDapp(address)": {
        "details": "Check if an address has the `dapp` role",
        "params": {
          "account": "Address you want to check"
        }
      },
      "isMember(address)": {
        "details": "Returns if an address is member or not",
        "params": {
          "account": "Address of the member you are looking for"
        },
        "return": "bool"
      },
      "isOperator(address)": {
        "details": "Check if an address has the `operator` role",
        "params": {
          "account": "Address you want to check"
        }
      },
      "isOwner()": {
        "return": "true if `msg.sender` is the owner of the contract."
      },
      "isVerified(address)": {
        "details": "Check if an address has been verified",
        "params": {
          "account": "Address you want to check"
        },
        "return": "bool"
      },
      "membersNumber()": {
        "details": "Returns the members number",
        "return": "uint256"
      },
      "newMember(address)": {
        "details": "Generate a new member and the member structure",
        "params": {
          "account": "Address you want to make member"
        },
        "return": "uint256 The new member id"
      },
      "owner()": {
        "return": "the address of the owner."
      },
      "removeDapp(address)": {
        "details": "Remove the `operator` role from address",
        "params": {
          "account": "Address you want to remove role"
        }
      },
      "removeOperator(address)": {
        "details": "Remove the `operator` role from address",
        "params": {
          "account": "Address you want to remove role"
        }
      },
      "renounceOwnership()": {
        "details": "Allows the current owner to relinquish control of the contract. It will not be possible to call the functions with the `onlyOwner` modifier anymore."
      },
      "stakedTokensOf(address)": {
        "details": "Check how many tokens staked for given address",
        "params": {
          "account": "Address you want to check"
        },
        "return": "uint256 Member staked tokens"
      },
      "supportsInterface(bytes4)": {
        "details": "implement supportsInterface(bytes4) using a lookup table"
      },
      "totalStakedTokens()": {
        "details": "Returns the total staked tokens number",
        "return": "uint256"
      },
      "transferOwnership(address)": {
        "details": "Allows the current owner to transfer control of the contract to a newOwner.",
        "params": {
          "newOwner": "The address to transfer ownership to."
        }
      },
      "unstake(uint256)": {
        "details": "Remove tokens from member stack",
        "params": {
          "amount": "Number of tokens to unstake"
        }
      },
      "use(address,uint256)": {
        "details": "Use tokens from a specific account",
        "params": {
          "account": "Address to use the tokens from",
          "amount": "Number of tokens to use"
        }
      }
    },
    "title": "DAO"
  },
  "userdoc": {
    "methods": {
      "renounceOwnership()": {
        "notice": "Renouncing ownership will leave the contract without an owner, thereby removing any functionality that is only available to the owner."
      }
    }
  }
}