{
  "contractName": "ProofOfFriends",
  "abi": [
    {
      "constant": true,
      "inputs": [
        {
          "name": "interfaceId",
          "type": "bytes4"
        }
      ],
      "name": "supportsInterface",
      "outputs": [
        {
          "name": "",
          "type": "bool"
        }
      ],
      "payable": false,
      "stateMutability": "view",
      "type": "function"
    },
    {
      "constant": false,
      "inputs": [
        {
          "name": "account",
          "type": "address"
        }
      ],
      "name": "addDapp",
      "outputs": [],
      "payable": false,
      "stateMutability": "nonpayable",
      "type": "function"
    },
    {
      "constant": true,
      "inputs": [],
      "name": "acceptedToken",
      "outputs": [
        {
          "name": "",
          "type": "address"
        }
      ],
      "payable": false,
      "stateMutability": "view",
      "type": "function"
    },
    {
      "constant": false,
      "inputs": [
        {
          "name": "account",
          "type": "address"
        }
      ],
      "name": "removeDapp",
      "outputs": [],
      "payable": false,
      "stateMutability": "nonpayable",
      "type": "function"
    },
    {
      "constant": true,
      "inputs": [
        {
          "name": "account",
          "type": "address"
        }
      ],
      "name": "isOperator",
      "outputs": [
        {
          "name": "",
          "type": "bool"
        }
      ],
      "payable": false,
      "stateMutability": "view",
      "type": "function"
    },
    {
      "constant": false,
      "inputs": [],
      "name": "renounceOwnership",
      "outputs": [],
      "payable": false,
      "stateMutability": "nonpayable",
      "type": "function"
    },
    {
      "constant": false,
      "inputs": [
        {
          "name": "owner",
          "type": "address"
        },
        {
          "name": "value",
          "type": "uint256"
        },
        {
          "name": "data",
          "type": "bytes"
        }
      ],
      "name": "onApprovalReceived",
      "outputs": [
        {
          "name": "",
          "type": "bytes4"
        }
      ],
      "payable": false,
      "stateMutability": "nonpayable",
      "type": "function"
    },
    {
      "constant": false,
      "inputs": [
        {
          "name": "operator",
          "type": "address"
        },
        {
          "name": "from",
          "type": "address"
        },
        {
          "name": "value",
          "type": "uint256"
        },
        {
          "name": "data",
          "type": "bytes"
        }
      ],
      "name": "onTransferReceived",
      "outputs": [
        {
          "name": "",
          "type": "bytes4"
        }
      ],
      "payable": false,
      "stateMutability": "nonpayable",
      "type": "function"
    },
    {
      "constant": true,
      "inputs": [],
      "name": "owner",
      "outputs": [
        {
          "name": "",
          "type": "address"
        }
      ],
      "payable": false,
      "stateMutability": "view",
      "type": "function"
    },
    {
      "constant": true,
      "inputs": [],
      "name": "isOwner",
      "outputs": [
        {
          "name": "",
          "type": "bool"
        }
      ],
      "payable": false,
      "stateMutability": "view",
      "type": "function"
    },
    {
      "constant": false,
      "inputs": [
        {
          "name": "account",
          "type": "address"
        }
      ],
      "name": "addOperator",
      "outputs": [],
      "payable": false,
      "stateMutability": "nonpayable",
      "type": "function"
    },
    {
      "constant": false,
      "inputs": [
        {
          "name": "account",
          "type": "address"
        }
      ],
      "name": "removeOperator",
      "outputs": [],
      "payable": false,
      "stateMutability": "nonpayable",
      "type": "function"
    },
    {
      "constant": true,
      "inputs": [
        {
          "name": "account",
          "type": "address"
        }
      ],
      "name": "isDapp",
      "outputs": [
        {
          "name": "",
          "type": "bool"
        }
      ],
      "payable": false,
      "stateMutability": "view",
      "type": "function"
    },
    {
      "constant": false,
      "inputs": [
        {
          "name": "newOwner",
          "type": "address"
        }
      ],
      "name": "transferOwnership",
      "outputs": [],
      "payable": false,
      "stateMutability": "nonpayable",
      "type": "function"
    },
    {
      "inputs": [
        {
          "name": "acceptedToken",
          "type": "address"
        }
      ],
      "payable": false,
      "stateMutability": "nonpayable",
      "type": "constructor"
    },
    {
      "payable": true,
      "stateMutability": "payable",
      "type": "fallback"
    },
    {
      "anonymous": false,
      "inputs": [
        {
          "indexed": true,
          "name": "account",
          "type": "address"
        },
        {
          "indexed": false,
          "name": "id",
          "type": "uint256"
        }
      ],
      "name": "MemberAdded",
      "type": "event"
    },
    {
      "anonymous": false,
      "inputs": [
        {
          "indexed": true,
          "name": "account",
          "type": "address"
        },
        {
          "indexed": false,
          "name": "value",
          "type": "uint256"
        }
      ],
      "name": "TokensStaked",
      "type": "event"
    },
    {
      "anonymous": false,
      "inputs": [
        {
          "indexed": true,
          "name": "account",
          "type": "address"
        },
        {
          "indexed": false,
          "name": "value",
          "type": "uint256"
        }
      ],
      "name": "TokensUnstaked",
      "type": "event"
    },
    {
      "anonymous": false,
      "inputs": [
        {
          "indexed": true,
          "name": "account",
          "type": "address"
        }
      ],
      "name": "OperatorAdded",
      "type": "event"
    },
    {
      "anonymous": false,
      "inputs": [
        {
          "indexed": true,
          "name": "account",
          "type": "address"
        }
      ],
      "name": "OperatorRemoved",
      "type": "event"
    },
    {
      "anonymous": false,
      "inputs": [
        {
          "indexed": true,
          "name": "account",
          "type": "address"
        }
      ],
      "name": "DappAdded",
      "type": "event"
    },
    {
      "anonymous": false,
      "inputs": [
        {
          "indexed": true,
          "name": "account",
          "type": "address"
        }
      ],
      "name": "DappRemoved",
      "type": "event"
    },
    {
      "anonymous": false,
      "inputs": [
        {
          "indexed": true,
          "name": "previousOwner",
          "type": "address"
        },
        {
          "indexed": true,
          "name": "newOwner",
          "type": "address"
        }
      ],
      "name": "OwnershipTransferred",
      "type": "event"
    },
    {
      "anonymous": false,
      "inputs": [
        {
          "indexed": true,
          "name": "operator",
          "type": "address"
        },
        {
          "indexed": true,
          "name": "from",
          "type": "address"
        },
        {
          "indexed": false,
          "name": "value",
          "type": "uint256"
        },
        {
          "indexed": false,
          "name": "data",
          "type": "bytes"
        }
      ],
      "name": "TokensReceived",
      "type": "event"
    },
    {
      "anonymous": false,
      "inputs": [
        {
          "indexed": true,
          "name": "owner",
          "type": "address"
        },
        {
          "indexed": false,
          "name": "value",
          "type": "uint256"
        },
        {
          "indexed": false,
          "name": "data",
          "type": "bytes"
        }
      ],
      "name": "TokensApproved",
      "type": "event"
    },
    {
      "constant": false,
      "inputs": [
        {
          "name": "account",
          "type": "address"
        }
      ],
      "name": "newMember",
      "outputs": [],
      "payable": false,
      "stateMutability": "nonpayable",
      "type": "function"
    },
    {
      "constant": false,
      "inputs": [
        {
          "name": "amount",
          "type": "uint256"
        }
      ],
      "name": "unstake",
      "outputs": [],
      "payable": false,
      "stateMutability": "nonpayable",
      "type": "function"
    },
    {
      "constant": true,
      "inputs": [],
      "name": "membersNumber",
      "outputs": [
        {
          "name": "",
          "type": "uint256"
        }
      ],
      "payable": false,
      "stateMutability": "view",
      "type": "function"
    },
    {
      "constant": true,
      "inputs": [],
      "name": "totalStakedTokens",
      "outputs": [
        {
          "name": "",
          "type": "uint256"
        }
      ],
      "payable": false,
      "stateMutability": "view",
      "type": "function"
    },
    {
      "constant": true,
      "inputs": [
        {
          "name": "account",
          "type": "address"
        }
      ],
      "name": "isMember",
      "outputs": [
        {
          "name": "",
          "type": "bool"
        }
      ],
      "payable": false,
      "stateMutability": "view",
      "type": "function"
    },
    {
      "constant": true,
      "inputs": [
        {
          "name": "account",
          "type": "address"
        }
      ],
      "name": "getMemberByAddress",
      "outputs": [
        {
          "name": "id",
          "type": "uint256"
        },
        {
          "name": "member",
          "type": "address"
        },
        {
          "name": "fingerprint",
          "type": "bytes9"
        },
        {
          "name": "creationDate",
          "type": "uint256"
        },
        {
          "name": "stakedTokens",
          "type": "uint256"
        },
        {
          "name": "data",
          "type": "bytes32"
        },
        {
          "name": "kyc",
          "type": "bool"
        }
      ],
      "payable": false,
      "stateMutability": "view",
      "type": "function"
    },
    {
      "constant": true,
      "inputs": [
        {
          "name": "memberId",
          "type": "uint256"
        }
      ],
      "name": "getMemberById",
      "outputs": [
        {
          "name": "id",
          "type": "uint256"
        },
        {
          "name": "member",
          "type": "address"
        },
        {
          "name": "fingerprint",
          "type": "bytes9"
        },
        {
          "name": "creationDate",
          "type": "uint256"
        },
        {
          "name": "stakedTokens",
          "type": "uint256"
        },
        {
          "name": "data",
          "type": "bytes32"
        },
        {
          "name": "kyc",
          "type": "bool"
        }
      ],
      "payable": false,
      "stateMutability": "view",
      "type": "function"
    }
  ],
  "bytecode": "0x60806040523480156200001157600080fd5b5060405160208062001729833981018060405260208110156200003357600080fd5b5051806200006a7f01ffc9a700000000000000000000000000000000000000000000000000000000640100000000620002c4810204565b600160a060020a0381166200007e57600080fd5b604080517f01ffc9a70000000000000000000000000000000000000000000000000000000081527f4bbee2df0000000000000000000000000000000000000000000000000000000060048201529051600160a060020a038316916301ffc9a7916024808301926020929190829003018186803b158015620000fe57600080fd5b505afa15801562000113573d6000803e3d6000fd5b505050506040513d60208110156200012a57600080fd5b50518015620001e35750604080517f01ffc9a70000000000000000000000000000000000000000000000000000000081527ffb9ec8ce0000000000000000000000000000000000000000000000000000000060048201529051600160a060020a038316916301ffc9a7916024808301926020929190829003018186803b158015620001b457600080fd5b505afa158015620001c9573d6000803e3d6000fd5b505050506040513d6020811015620001e057600080fd5b50515b620001ed57600080fd5b60018054600160a060020a031916600160a060020a0383161790556200023c7f88a7ca5c00000000000000000000000000000000000000000000000000000000640100000000620002c4810204565b620002707f7b04a2d000000000000000000000000000000000000000000000000000000000640100000000620002c4810204565b5060028054600160a060020a031916331790819055604051600160a060020a0391909116906000907f8be0079c531659141344cd1fd0a4f28419497f9722a3daafe3b4186f6b6457e0908290a35062000331565b7fffffffff000000000000000000000000000000000000000000000000000000008082161415620002f457600080fd5b7fffffffff00000000000000000000000000000000000000000000000000000000166000908152602081905260409020805460ff19166001179055565b6113e880620003416000396000f3fe608060405260043610610147576000357c010000000000000000000000000000000000000000000000000000000090048063715018a6116100c85780638f32d59b1161008c5780638f32d59b146105cc5780639870d7fe146105e1578063a230c52414610614578063ac8a584a14610647578063e52c35581461067a578063f2fde38b146106ad57610147565b8063715018a6146103c05780637b04a2d0146103d557806388a7ca5c146104cf5780638a4fe8ac146105a25780638da5cb5b146105b757610147565b8063451c3d801161010f578063451c3d80146102cc5780635cafbafb146102fd578063627c55f6146103305780636d70f7ae146103635780636f80886c1461039657610147565b806301ffc9a71461015d57806327b7ca5f146101ba5780632e17de78146101ed5780633ae73259146102175780633dd9899f1461023e575b341561015257600080fd5b61015b336106e0565b005b34801561016957600080fd5b506101a66004803603602081101561018057600080fd5b50357bffffffffffffffffffffffffffffffffffffffffffffffffffffffff1916610738565b604080519115158252519081900360200190f35b3480156101c657600080fd5b5061015b600480360360208110156101dd57600080fd5b5035600160a060020a031661076c565b3480156101f957600080fd5b5061015b6004803603602081101561021057600080fd5b503561078a565b34801561022357600080fd5b5061022c610884565b60408051918252519081900360200190f35b34801561024a57600080fd5b506102716004803603602081101561026157600080fd5b5035600160a060020a031661088a565b60408051978852600160a060020a03909616602088015276ffffffffffffffffffffffffffffffffffffffffffffff19909416868601526060860192909252608085015260a0840152151560c0830152519081900360e00190f35b3480156102d857600080fd5b506102e16108e0565b60408051600160a060020a039092168252519081900360200190f35b34801561030957600080fd5b5061015b6004803603602081101561032057600080fd5b5035600160a060020a03166108ef565b34801561033c57600080fd5b5061015b6004803603602081101561035357600080fd5b5035600160a060020a031661090a565b34801561036f57600080fd5b506101a66004803603602081101561038657600080fd5b5035600160a060020a0316610925565b3480156103a257600080fd5b50610271600480360360208110156103b957600080fd5b503561093e565b3480156103cc57600080fd5b5061015b610957565b3480156103e157600080fd5b5061049d600480360360608110156103f857600080fd5b600160a060020a038235169160208101359181019060608101604082013564010000000081111561042857600080fd5b82018360208201111561043a57600080fd5b8035906020019184600183028401116401000000008311171561045c57600080fd5b91908080601f0160208091040260200160405190810160405280939291908181526020018383808284376000920191909152509295506109bf945050505050565b604080517bffffffffffffffffffffffffffffffffffffffffffffffffffffffff199092168252519081900360200190f35b3480156104db57600080fd5b5061049d600480360360808110156104f257600080fd5b600160a060020a0382358116926020810135909116916040820135919081019060808101606082013564010000000081111561052d57600080fd5b82018360208201111561053f57600080fd5b8035906020019184600183028401116401000000008311171561056157600080fd5b91908080601f016020809104026020016040519081016040528093929190818152602001838380828437600092019190915250929550610ab8945050505050565b3480156105ae57600080fd5b5061022c610bbd565b3480156105c357600080fd5b506102e1610bc3565b3480156105d857600080fd5b506101a6610bd2565b3480156105ed57600080fd5b5061015b6004803603602081101561060457600080fd5b5035600160a060020a0316610be3565b34801561062057600080fd5b506101a66004803603602081101561063757600080fd5b5035600160a060020a0316610bfd565b34801561065357600080fd5b5061015b6004803603602081101561066a57600080fd5b5035600160a060020a0316610c10565b34801561068657600080fd5b506101a66004803603602081101561069d57600080fd5b5035600160a060020a0316610c2a565b3480156106b957600080fd5b5061015b600480360360208110156106d057600080fd5b5035600160a060020a0316610c3d565b60006106f360058363ffffffff610c5716565b604080518281529051919250600160a060020a038416917fede8eed4383e9241982619b94dd83e488b274cced0fd07b8c0092a393defd52f9181900360200190a25050565b7bffffffffffffffffffffffffffffffffffffffffffffffffffffffff191660009081526020819052604090205460ff1690565b61077533610925565b61077e57600080fd5b61078781610e02565b50565b61079c6005338363ffffffff610e4a16565b6107a46108e0565b600160a060020a031663a9059cbb33836040518363ffffffff167c01000000000000000000000000000000000000000000000000000000000281526004018083600160a060020a0316600160a060020a0316815260200182815260200192505050602060405180830381600087803b15801561081f57600080fd5b505af1158015610833573d6000803e3d6000fd5b505050506040513d602081101561084957600080fd5b505060408051828152905133917f9845e367b683334e5c0b12d7b81721ac518e649376fa65e3d68324e8f34f2679919081900360200190a250565b60065490565b600080600080600080600061089e88610bfd565b6108a757600080fd5b600160a060020a0388166000908152600760205260409020546108c99061093e565b959e949d50929b5090995097509550909350915050565b600154600160a060020a031690565b6108f833610925565b61090157600080fd5b610787816106e0565b61091333610925565b61091c57600080fd5b61078781610ed5565b600061093860038363ffffffff610f1d16565b92915050565b60008080808080806108c960058963ffffffff610f5216565b61095f610bd2565b61096857600080fd5b600254604051600091600160a060020a0316907f8be0079c531659141344cd1fd0a4f28419497f9722a3daafe3b4186f6b6457e0908390a36002805473ffffffffffffffffffffffffffffffffffffffff19169055565b600154600090600160a060020a031633146109d957600080fd5b83600160a060020a03167ffc47604465ac19edea172256bab2469184c3a6770701541635cf84241c2f24b484846040518083815260200180602001828103825283818151815260200191508051906020019080838360005b83811015610a49578181015183820152602001610a31565b50505050905090810190601f168015610a765780820380516001836020036101000a031916815260200191505b50935050505060405180910390a2610a8f848484610fe5565b507f7b04a2d0000000000000000000000000000000000000000000000000000000009392505050565b600154600090600160a060020a03163314610ad257600080fd5b83600160a060020a031685600160a060020a03167f01db5e58326b109682dc160b2e51aa7bf7e8d8ccf74bc242a3c502179378905585856040518083815260200180602001828103825283818151815260200191508051906020019080838360005b83811015610b4c578181015183820152602001610b34565b50505050905090810190601f168015610b795780820380516001836020036101000a031916815260200191505b50935050505060405180910390a3610b938585858561109c565b507f88a7ca5c00000000000000000000000000000000000000000000000000000000949350505050565b60055490565b600254600160a060020a031690565b600254600160a060020a0316331490565b610beb610bd2565b610bf457600080fd5b610787816110ac565b600061093860058363ffffffff6110f416565b610c18610bd2565b610c2157600080fd5b61078781611115565b600061093860048363ffffffff610f1d16565b610c45610bd2565b610c4e57600080fd5b6107878161115d565b6000600160a060020a038216610c6c57600080fd5b610c7683836110f4565b15610c8057600080fd5b8254600090610c9690600163ffffffff6111d916565b90506000610ca484836111f2565b90508185600201600086600160a060020a0316600160a060020a03168152602001908152602001600020819055506040518060c0016040528085600160a060020a031681526020018276ffffffffffffffffffffffffffffffffffffffffffffff1916815260200142815260200160008152602001600080191681526020016000151581525085600301600084815260200190815260200160002060008201518160000160006101000a815481600160a060020a030219169083600160a060020a0316021790555060208201518160000160146101000a81548168ffffffffffffffffff0219169083770100000000000000000000000000000000000000000000009004021790555060408201518160010155606082015181600201556080820151816003015560a08201518160040160006101000a81548160ff021916908315150217905550905050818560000181905550819250505092915050565b610e1360048263ffffffff61123c16565b604051600160a060020a038216907f34db09e115b593d4a96c3047ffae8bfd18efd935fd73d76338af3f4a8593295090600090a250565b610e5483836110f4565b610e5d57600080fd5b600160a060020a03821660009081526002808501602090815260408084205484526003870190915290912090810154821115610e9857600080fd5b6002810154610ead908363ffffffff61128816565b60028201556001840154610ec7908363ffffffff61128816565b846001018190555050505050565b610ee660048263ffffffff61129d16565b604051600160a060020a038216907f1822aa3e32733968fade457518e58efe85994da84bac3654f2f88b957ad29c6590600090a250565b6000600160a060020a038216610f3257600080fd5b50600160a060020a03166000908152602091909152604090205460ff1690565b600081815260038301602052604081208054600160a060020a0316908290819081908190819086610f8257600080fd5b80546001820154600283015460038401546004909401549b9d999c507401000000000000000000000000000000000000000090920477010000000000000000000000000000000000000000000000029a909950909791965060ff16945092505050565b610fed6108e0565b604080517f23b872dd000000000000000000000000000000000000000000000000000000008152600160a060020a03868116600483015230602483015260448201869052915192909116916323b872dd916064808201926020929091908290030181600087803b15801561106057600080fd5b505af1158015611074573d6000803e3d6000fd5b505050506040513d602081101561108a57600080fd5b50611097905083836112e5565b505050565b6110a683836112e5565b50505050565b6110bd60038263ffffffff61123c16565b604051600160a060020a038216907fac6fa858e9350a46cec16539926e0fde25b7629f84b5a72bffaae4df888ae86d90600090a250565b600160a060020a031660009081526002919091016020526040902054151590565b61112660038263ffffffff61129d16565b604051600160a060020a038216907f80c0b871b97b595b16a7741c1b06fed0c6f6f558639f18ccbce50724325dc40d90600090a250565b600160a060020a03811661117057600080fd5b600254604051600160a060020a038084169216907f8be0079c531659141344cd1fd0a4f28419497f9722a3daafe3b4186f6b6457e090600090a36002805473ffffffffffffffffffffffffffffffffffffffff1916600160a060020a0392909216919091179055565b6000828201838110156111eb57600080fd5b9392505050565b60408051600160a060020a03939093166c01000000000000000000000000026020808501919091526034808501939093528151808503909301835260549093019052805191012090565b600160a060020a03811661124f57600080fd5b6112598282610f1d565b1561126357600080fd5b600160a060020a0316600090815260209190915260409020805460ff19166001179055565b60008282111561129757600080fd5b50900390565b600160a060020a0381166112b057600080fd5b6112ba8282610f1d565b6112c357600080fd5b600160a060020a0316600090815260209190915260409020805460ff19169055565b6112ee82610bfd565b6112fb576112fb826106e0565b61130d6005838363ffffffff61135016565b604080518281529051600160a060020a038416917fb539ca1e5c8d398ddf1c41c30166f33404941683be4683319b57669a93dad4ef919081900360200190a25050565b61135a83836110f4565b61136357600080fd5b600160a060020a038216600090815260028085016020908152604080842054845260038701909152909120908101546113a2908363ffffffff6111d916565b60028201556001840154610ec7908363ffffffff6111d91656fea165627a7a723058207e5dd31c153daf62165a9fe5dd804c90294588b0ad25bec10b1288ef2e18f8e70029",
  "source": "pragma solidity ^0.5.7;\n\nimport \"erc-payable-token/contracts/payment/ERC1363Payable.sol\";\nimport \"../access/roles/DAORoles.sol\";\nimport \"./DAO.sol\";\n\n/**\n * @title ProofOfFriends\n * @author Vittorio Minacori (https://github.com/vittominacori)\n * @dev It identifies the DAO and Proof of Friends logic\n */\ncontract ProofOfFriends is ERC1363Payable, DAORoles {\n    using DAO for DAO.Members;\n\n    event MemberAdded(\n        address indexed account,\n        uint256 id\n    );\n\n    event TokensStaked(\n        address indexed account,\n        uint256 value\n    );\n\n    event TokensUnstaked(\n        address indexed account,\n        uint256 value\n    );\n\n    DAO.Members private _members;\n\n    constructor (IERC1363 acceptedToken) public ERC1363Payable(acceptedToken) {} // solhint-disable-line no-empty-blocks\n\n    /**\n     * @dev fallback. This function will create a new member\n     */\n    function () external payable { // solhint-disable-line no-complex-fallback\n        require(msg.value == 0);\n\n        _newMember(msg.sender);\n    }\n\n    /**\n     * @dev Generate a new member and the member structure\n     * @param account Address you want to make member\n     * @return uint256 The new member id\n     */\n    function newMember(address account) external onlyOperator {\n        _newMember(account);\n    }\n\n    /**\n     * @dev Remove tokens from member stack\n     * @param amount Number of tokens to unstake\n     */\n    function unstake(uint256 amount) public {\n        _members.unstake(msg.sender, amount);\n\n        IERC20(acceptedToken()).transfer(msg.sender, amount);\n\n        emit TokensUnstaked(msg.sender, amount);\n    }\n\n    /**\n     * @dev Returns the members number\n     * @return uint256\n     */\n    function membersNumber() public view returns (uint256) {\n        return _members.count;\n    }\n\n    /**\n     * @dev Returns the total staked tokens number\n     * @return uint256\n     */\n    function totalStakedTokens() public view returns (uint256) {\n        return _members.totalStakedTokens;\n    }\n\n    /**\n     * @dev Returns if an address is member or not\n     * @param account Address of the member you are looking for\n     * @return bool\n     */\n    function isMember(address account) public view returns (bool) {\n        return _members.isMember(account);\n    }\n\n    /**\n     * @dev Returns the member structure\n     * @param account Address of the member you are looking for\n     * @return array\n     */\n    function getMemberByAddress(address account)\n        public\n        view\n        returns (\n            uint256 id,\n            address member,\n            bytes9 fingerprint,\n            uint256 creationDate,\n            uint256 stakedTokens,\n            bytes32 data,\n            bool kyc\n        )\n    {\n        require(isMember(account));\n\n        return getMemberById(_members.addressMap[account]);\n    }\n\n    /**\n     * @dev Returns the member structure\n     * @param memberId Id of the member you are looking for\n     * @return array\n     */\n    function getMemberById(uint256 memberId)\n        public\n        view\n        returns (\n            uint256 id,\n            address member,\n            bytes9 fingerprint,\n            uint256 creationDate,\n            uint256 stakedTokens,\n            bytes32 data,\n            bool kyc\n        )\n    {\n        return _members.getMember(memberId);\n    }\n\n    /**\n     * @dev Called after validating a `onTransferReceived`\n     * @param operator address The address which called `transferAndCall` or `transferFromAndCall` function\n     * @param from address The address which are token transferred from\n     * @param value uint256 The amount of tokens transferred\n     * @param data bytes Additional data with no specified format\n     */\n    function _transferReceived(\n        address operator, // solhint-disable-line no-unused-vars\n        address from,\n        uint256 value,\n        bytes memory data // solhint-disable-line no-unused-vars\n    )\n        internal\n    {\n        _stake(from, value);\n    }\n\n    /**\n     * @dev Called after validating a `onApprovalReceived`\n     * @param owner address The address which called `approveAndCall` function\n     * @param value uint256 The amount of tokens to be spent\n     * @param data bytes Additional data with no specified format\n     */\n    function _approvalReceived(\n        address owner,\n        uint256 value,\n        bytes memory data // solhint-disable-line no-unused-vars\n    )\n        internal\n    {\n        IERC20(acceptedToken()).transferFrom(owner, address(this), value);\n\n        _stake(owner, value);\n    }\n\n    /**\n     * @dev Generate a new member and the member structure\n     * @param account Address you want to make member\n     * @return uint256 The new member id\n     */\n    function _newMember(address account) internal {\n        uint256 memberId = _members.addMember(account);\n\n        emit MemberAdded(account, memberId);\n    }\n\n    /**\n     * @dev Add tokens to member stack\n     * @param account Address you want to stake tokens\n     * @param amount Number of tokens to stake\n     */\n    function _stake(address account, uint256 amount) internal {\n        if (!isMember(account)) {\n            _newMember(account);\n        }\n\n        _members.stake(account, amount);\n\n        emit TokensStaked(account, amount);\n    }\n}\n",
  "sourcePath": "/Users/vittominacori/Projects/friendsfingers/dao-smartcontracts/contracts/dao/ProofOfFriends.sol",
  "compiler": {
    "name": "solc",
    "version": "0.5.7+commit.6da8b019.Emscripten.clang"
  },
  "schemaVersion": "3.0.6",
  "updatedAt": "2019-04-07T18:12:45.214Z",
  "devdoc": {
    "author": "Vittorio Minacori (https://github.com/vittominacori)",
    "details": "It identifies the DAO and Proof of Friends logic",
    "methods": {
      "acceptedToken()": {
        "details": "The ERC1363 token accepted"
      },
      "addDapp(address)": {
        "details": "Add the `dapp` role from address",
        "params": {
          "account": "Address you want to add role"
        }
      },
      "addOperator(address)": {
        "details": "Add the `operator` role from address",
        "params": {
          "account": "Address you want to add role"
        }
      },
      "getMemberByAddress(address)": {
        "details": "Returns the member structure",
        "params": {
          "account": "Address of the member you are looking for"
        },
        "return": "array"
      },
      "getMemberById(uint256)": {
        "details": "Returns the member structure",
        "params": {
          "memberId": "Id of the member you are looking for"
        },
        "return": "array"
      },
      "isDapp(address)": {
        "details": "Check if an address has the `dapp` role",
        "params": {
          "account": "Address you want to check"
        }
      },
      "isMember(address)": {
        "details": "Returns if an address is member or not",
        "params": {
          "account": "Address of the member you are looking for"
        },
        "return": "bool"
      },
      "isOperator(address)": {
        "details": "Check if an address has the `operator` role",
        "params": {
          "account": "Address you want to check"
        }
      },
      "isOwner()": {
        "return": "true if `msg.sender` is the owner of the contract."
      },
      "membersNumber()": {
        "details": "Returns the members number",
        "return": "uint256"
      },
      "newMember(address)": {
        "details": "Generate a new member and the member structure",
        "params": {
          "account": "Address you want to make member"
        },
        "return": "uint256 The new member id"
      },
      "owner()": {
        "return": "the address of the owner."
      },
      "removeDapp(address)": {
        "details": "Remove the `operator` role from address",
        "params": {
          "account": "Address you want to remove role"
        }
      },
      "removeOperator(address)": {
        "details": "Remove the `operator` role from address",
        "params": {
          "account": "Address you want to remove role"
        }
      },
      "renounceOwnership()": {
        "details": "Allows the current owner to relinquish control of the contract. It will not be possible to call the functions with the `onlyOwner` modifier anymore."
      },
      "supportsInterface(bytes4)": {
        "details": "implement supportsInterface(bytes4) using a lookup table"
      },
      "totalStakedTokens()": {
        "details": "Returns the total staked tokens number",
        "return": "uint256"
      },
      "transferOwnership(address)": {
        "details": "Allows the current owner to transfer control of the contract to a newOwner.",
        "params": {
          "newOwner": "The address to transfer ownership to."
        }
      },
      "unstake(uint256)": {
        "details": "Remove tokens from member stack",
        "params": {
          "amount": "Number of tokens to unstake"
        }
      }
    },
    "title": "ProofOfFriends"
  },
  "userdoc": {
    "methods": {
      "renounceOwnership()": {
        "notice": "Renouncing ownership will leave the contract without an owner, thereby removing any functionality that is only available to the owner."
      }
    }
  }
}